{
  "contractName": "Administrateur",
  "abi": [
    {
      "constant": true,
      "inputs": [
        {
          "internalType": "uint256",
          "name": "",
          "type": "uint256"
        }
      ],
      "name": "listRole",
      "outputs": [
        {
          "internalType": "string",
          "name": "",
          "type": "string"
        }
      ],
      "payable": false,
      "stateMutability": "view",
      "type": "function"
    },
    {
      "constant": false,
      "inputs": [
        {
          "internalType": "string",
          "name": "_idAdmin",
          "type": "string"
        },
        {
          "internalType": "string",
          "name": "_nomAdmin",
          "type": "string"
        },
        {
          "internalType": "string",
          "name": "_prenomAdmin",
          "type": "string"
        },
        {
          "internalType": "uint256",
          "name": "_numeroTel",
          "type": "uint256"
        },
        {
          "internalType": "string",
          "name": "_mailAdmin",
          "type": "string"
        },
        {
          "internalType": "string",
          "name": "_password",
          "type": "string"
        }
      ],
      "name": "initAdministrateur",
      "outputs": [],
      "payable": false,
      "stateMutability": "nonpayable",
      "type": "function"
    },
    {
      "constant": false,
      "inputs": [
        {
          "internalType": "string",
          "name": "nv_role",
          "type": "string"
        },
        {
          "internalType": "string",
          "name": "_permission",
          "type": "string"
        }
      ],
      "name": "addRole",
      "outputs": [],
      "payable": false,
      "stateMutability": "nonpayable",
      "type": "function"
    },
    {
      "constant": true,
      "inputs": [
        {
          "internalType": "string",
          "name": "_typerole",
          "type": "string"
        }
      ],
      "name": "getRoleByName",
      "outputs": [
        {
          "internalType": "string",
          "name": "",
          "type": "string"
        },
        {
          "internalType": "string",
          "name": "",
          "type": "string"
        }
      ],
      "payable": false,
      "stateMutability": "view",
      "type": "function"
    },
    {
      "constant": true,
      "inputs": [],
      "name": "getAllRole",
      "outputs": [
        {
          "internalType": "string[]",
          "name": "",
          "type": "string[]"
        }
      ],
      "payable": false,
      "stateMutability": "view",
      "type": "function"
    },
    {
      "constant": false,
      "inputs": [
        {
          "internalType": "string",
          "name": "newpassword",
          "type": "string"
        }
      ],
      "name": "changePassword",
      "outputs": [],
      "payable": false,
      "stateMutability": "nonpayable",
      "type": "function"
    },
    {
      "constant": false,
      "inputs": [
        {
          "internalType": "string",
          "name": "newNom",
          "type": "string"
        }
      ],
      "name": "changeNom",
      "outputs": [],
      "payable": false,
      "stateMutability": "nonpayable",
      "type": "function"
    },
    {
      "constant": false,
      "inputs": [
        {
          "internalType": "string",
          "name": "newPrenom",
          "type": "string"
        }
      ],
      "name": "changePrenom",
      "outputs": [],
      "payable": false,
      "stateMutability": "nonpayable",
      "type": "function"
    },
    {
      "constant": false,
      "inputs": [
        {
          "internalType": "string",
          "name": "newEmail",
          "type": "string"
        }
      ],
      "name": "changeEmail",
      "outputs": [],
      "payable": false,
      "stateMutability": "nonpayable",
      "type": "function"
    },
    {
      "constant": false,
      "inputs": [
        {
          "internalType": "uint256",
          "name": "newTel",
          "type": "uint256"
        }
      ],
      "name": "changeTel",
      "outputs": [],
      "payable": false,
      "stateMutability": "nonpayable",
      "type": "function"
    },
    {
      "constant": true,
      "inputs": [],
      "name": "getIdAdmin",
      "outputs": [
        {
          "internalType": "string",
          "name": "",
          "type": "string"
        }
      ],
      "payable": false,
      "stateMutability": "view",
      "type": "function"
    },
    {
      "constant": true,
      "inputs": [],
      "name": "getNomAdmin",
      "outputs": [
        {
          "internalType": "string",
          "name": "",
          "type": "string"
        }
      ],
      "payable": false,
      "stateMutability": "view",
      "type": "function"
    },
    {
      "constant": true,
      "inputs": [],
      "name": "getPrenomAdmin",
      "outputs": [
        {
          "internalType": "string",
          "name": "",
          "type": "string"
        }
      ],
      "payable": false,
      "stateMutability": "view",
      "type": "function"
    },
    {
      "constant": true,
      "inputs": [],
      "name": "getTelephoneAdmin",
      "outputs": [
        {
          "internalType": "uint256",
          "name": "",
          "type": "uint256"
        }
      ],
      "payable": false,
      "stateMutability": "view",
      "type": "function"
    },
    {
      "constant": true,
      "inputs": [],
      "name": "getMailAdmin",
      "outputs": [
        {
          "internalType": "string",
          "name": "",
          "type": "string"
        }
      ],
      "payable": false,
      "stateMutability": "view",
      "type": "function"
    },
    {
      "constant": true,
      "inputs": [],
      "name": "getPasswordMalade",
      "outputs": [
        {
          "internalType": "string",
          "name": "",
          "type": "string"
        }
      ],
      "payable": false,
      "stateMutability": "view",
      "type": "function"
    }
  ],
  "bytecode": "0x608060405234801561001057600080fd5b50611198806100206000396000f3fe608060405234801561001057600080fd5b50600436106101005760003560e01c8063a807124811610097578063dd517fae11610066578063dd517fae14610276578063e8797d2a14610292578063eb07d081146102ae578063fa1b7e16146102de57610100565b8063a807124814610202578063b104575814610220578063b11a0bf41461023e578063d553357d1461025a57610100565b80636bbb0cc1116100d35780636bbb0cc11461018e5780638921bcbe146101aa578063a0acc3c9146101c8578063a3234a15146101e457610100565b8063225240b21461010557806328caef03146101235780634ff9cc511461014157806353a9020e1461015d575b600080fd5b61010d6102fc565b60405161011a9190610f98565b60405180910390f35b61012b61039e565b6040516101389190610f98565b60405180910390f35b61015b60048036036101569190810190610bf2565b610440565b005b61017760048036036101729190810190610bf2565b61045a565b604051610185929190610fba565b60405180910390f35b6101a860048036036101a39190810190610da0565b6105c9565b005b6101b26105d3565b6040516101bf9190610f98565b60405180910390f35b6101e260048036036101dd9190810190610bf2565b610675565b005b6101ec61068f565b6040516101f99190610ff1565b60405180910390f35b61020a610699565b6040516102179190610f98565b60405180910390f35b61022861073b565b6040516102359190610f98565b60405180910390f35b61025860048036036102539190810190610c9f565b6107dd565b005b610274600480360361026f9190810190610bf2565b61085f565b005b610290600480360361028b9190810190610c33565b610879565b005b6102ac60048036036102a79190810190610bf2565b610928565b005b6102c860048036036102c39190810190610da0565b610942565b6040516102d59190610f76565b60405180910390f35b6102e66109fb565b6040516102f39190610f54565b60405180910390f35b606060018054600181600116156101000203166002900480601f0160208091040260200160405190810160405280929190818152602001828054600181600116156101000203166002900480156103945780601f1061036957610100808354040283529160200191610394565b820191906000526020600020905b81548152906001019060200180831161037757829003601f168201915b5050505050905090565b606060008054600181600116156101000203166002900480601f0160208091040260200160405190810160405280929190818152602001828054600181600116156101000203166002900480156104365780601f1061040b57610100808354040283529160200191610436565b820191906000526020600020905b81548152906001019060200180831161041957829003601f168201915b5050505050905090565b8060059080519060200190610456929190610ae4565b5050565b606080600060068460405161046f9190610f3d565b908152602001604051809103902090508060000181600101818054600181600116156101000203166002900480601f01602080910402602001604051908101604052809291908181526020018280546001816001161561010002031660029004801561051c5780601f106104f15761010080835404028352916020019161051c565b820191906000526020600020905b8154815290600101906020018083116104ff57829003601f168201915b50505050509150808054600181600116156101000203166002900480601f0160208091040260200160405190810160405280929190818152602001828054600181600116156101000203166002900480156105b85780601f1061058d576101008083540402835291602001916105b8565b820191906000526020600020905b81548152906001019060200180831161059b57829003601f168201915b505050505090509250925050915091565b8060038190555050565b606060028054600181600116156101000203166002900480601f01602080910402602001604051908101604052809291908181526020018280546001816001161561010002031660029004801561066b5780601f106106405761010080835404028352916020019161066b565b820191906000526020600020905b81548152906001019060200180831161064e57829003601f168201915b5050505050905090565b806002908051906020019061068b929190610ae4565b5050565b6000600354905090565b606060058054600181600116156101000203166002900480601f0160208091040260200160405190810160405280929190818152602001828054600181600116156101000203166002900480156107315780601f1061070657610100808354040283529160200191610731565b820191906000526020600020905b81548152906001019060200180831161071457829003601f168201915b5050505050905090565b606060048054600181600116156101000203166002900480601f0160208091040260200160405190810160405280929190818152602001828054600181600116156101000203166002900480156107d35780601f106107a8576101008083540402835291602001916107d3565b820191906000526020600020905b8154815290600101906020018083116107b657829003601f168201915b5050505050905090565b85600090805190602001906107f3929190610ae4565b50846001908051906020019061080a929190610ae4565b508360029080519060200190610821929190610ae4565b5082600381905550816004908051906020019061083f929190610ae4565b508060059080519060200190610856929190610ae4565b50505050505050565b8060049080519060200190610875929190610ae4565b5050565b8160068360405161088a9190610f3d565b908152602001604051809103902060000190805190602001906108ae929190610ae4565b50806006836040516108c09190610f3d565b908152602001604051809103902060010190805190602001906108e4929190610ae4565b506007829080600181540180825580915050906001820390600052602060002001600090919290919091509080519060200190610922929190610ae4565b50505050565b806001908051906020019061093e929190610ae4565b5050565b6007818154811061094f57fe5b906000526020600020016000915090508054600181600116156101000203166002900480601f0160208091040260200160405190810160405280929190818152602001828054600181600116156101000203166002900480156109f35780601f106109c8576101008083540402835291602001916109f3565b820191906000526020600020905b8154815290600101906020018083116109d657829003601f168201915b505050505081565b60606007805480602002602001604051908101604052809291908181526020016000905b82821015610adb578382906000526020600020018054600181600116156101000203166002900480601f016020809104026020016040519081016040528092919081815260200182805460018160011615610100020316600290048015610ac75780601f10610a9c57610100808354040283529160200191610ac7565b820191906000526020600020905b815481529060010190602001808311610aaa57829003601f168201915b505050505081526020019060010190610a1f565b50505050905090565b828054600181600116156101000203166002900490600052602060002090601f016020900481019282601f10610b2557805160ff1916838001178555610b53565b82800160010185558215610b53579182015b82811115610b52578251825591602001919060010190610b37565b5b509050610b609190610b64565b5090565b610b8691905b80821115610b82576000816000905550600101610b6a565b5090565b90565b600082601f830112610b9a57600080fd5b8135610bad610ba882611039565b61100c565b91508082526020830160208301858383011115610bc957600080fd5b610bd48382846110eb565b50505092915050565b600081359050610bec8161113e565b92915050565b600060208284031215610c0457600080fd5b600082013567ffffffffffffffff811115610c1e57600080fd5b610c2a84828501610b89565b91505092915050565b60008060408385031215610c4657600080fd5b600083013567ffffffffffffffff811115610c6057600080fd5b610c6c85828601610b89565b925050602083013567ffffffffffffffff811115610c8957600080fd5b610c9585828601610b89565b9150509250929050565b60008060008060008060c08789031215610cb857600080fd5b600087013567ffffffffffffffff811115610cd257600080fd5b610cde89828a01610b89565b965050602087013567ffffffffffffffff811115610cfb57600080fd5b610d0789828a01610b89565b955050604087013567ffffffffffffffff811115610d2457600080fd5b610d3089828a01610b89565b9450506060610d4189828a01610bdd565b935050608087013567ffffffffffffffff811115610d5e57600080fd5b610d6a89828a01610b89565b92505060a087013567ffffffffffffffff811115610d8757600080fd5b610d9389828a01610b89565b9150509295509295509295565b600060208284031215610db257600080fd5b6000610dc084828501610bdd565b91505092915050565b6000610dd58383610ebc565b905092915050565b6000610de882611075565b610df281856110a3565b935083602082028501610e0485611065565b8060005b85811015610e405784840389528151610e218582610dc9565b9450610e2c83611096565b925060208a01995050600181019050610e08565b50829750879550505050505092915050565b6000610e5d8261108b565b610e6781856110c5565b9350610e778185602086016110fa565b610e808161112d565b840191505092915050565b6000610e968261108b565b610ea081856110d6565b9350610eb08185602086016110fa565b80840191505092915050565b6000610ec782611080565b610ed181856110b4565b9350610ee18185602086016110fa565b610eea8161112d565b840191505092915050565b6000610f0082611080565b610f0a81856110c5565b9350610f1a8185602086016110fa565b610f238161112d565b840191505092915050565b610f37816110e1565b82525050565b6000610f498284610e8b565b915081905092915050565b60006020820190508181036000830152610f6e8184610ddd565b905092915050565b60006020820190508181036000830152610f908184610ef5565b905092915050565b60006020820190508181036000830152610fb28184610e52565b905092915050565b60006040820190508181036000830152610fd48185610e52565b90508181036020830152610fe88184610e52565b90509392505050565b60006020820190506110066000830184610f2e565b92915050565b6000604051905081810181811067ffffffffffffffff8211171561102f57600080fd5b8060405250919050565b600067ffffffffffffffff82111561105057600080fd5b601f19601f8301169050602081019050919050565b6000819050602082019050919050565b600081519050919050565b600081519050919050565b600081519050919050565b6000602082019050919050565b600082825260208201905092915050565b600082825260208201905092915050565b600082825260208201905092915050565b600081905092915050565b6000819050919050565b82818337600083830152505050565b60005b838110156111185780820151818401526020810190506110fd565b83811115611127576000848401525b50505050565b6000601f19601f8301169050919050565b611147816110e1565b811461115257600080fd5b5056fea365627a7a7231582080667e2506bdccf12292509cc965fb1c226e1bd5edc4e356dd46f5e93f16644f6c6578706572696d656e74616cf564736f6c63430005100040",
  "source": "// SPDX-License-Identifier: MIT\n\npragma solidity >=0.4.21 <0.7.0;\npragma experimental ABIEncoderV2;\n\n\ncontract Administrateur {\n\n    string idAdmin;\n    string nomAdmin;\n    string prenomAdmin;\n    uint256 numeroTel;\n    string mailAdmin;\n    string password;\n\n    //declaration de structure pour les roles\n    struct role_Struct {\n        string typeRole;\n        string permission;\n    }\n    mapping(string => role_Struct) Role;\n\n    string[] public listRole;\n\n\n    function initAdministrateur(\n        string memory _idAdmin,\n        string memory _nomAdmin,\n        string memory _prenomAdmin,\n        uint256 _numeroTel,\n        string memory _mailAdmin,\n        string memory _password\n    ) public {\n        idAdmin = _idAdmin;\n        nomAdmin = _nomAdmin;\n        prenomAdmin = _prenomAdmin;\n        numeroTel = _numeroTel;\n        mailAdmin = _mailAdmin;\n        password = _password;\n    }\n\n    function addRole(string memory nv_role, string memory _permission) public {\n\n        Role[nv_role].typeRole = nv_role;\n        Role[nv_role].permission = _permission;\n\n        listRole.push(nv_role);\n    }\n\n    function getRoleByName(string memory _typerole)\n        public\n        view\n        returns (string memory, string memory)\n    {\n        //cree une celle (struct) pour contenir le role stoqué dans la blockchain\n        role_Struct storage tmp = Role[_typerole];\n\n        return (tmp.typeRole, tmp.permission);\n    }\n\n    function getAllRole() public view returns (string[] memory) {\n            return listRole;\n    }\n     function changePassword(string memory newpassword) public    {\n        //récupéré les nom de roles contenu dans le tableau listRole\n        password = newpassword;\n    }\n\n    function changeNom(string memory newNom) public    {\n        //récupéré les nom de roles contenu dans le tableau listRole\n        nomAdmin = newNom;\n    }\n\n    function changePrenom(string memory newPrenom) public    {\n        //récupéré les nom de roles contenu dans le tableau listRole\n        prenomAdmin = newPrenom;\n    }\n\n    function changeEmail(string memory newEmail) public    {\n        //récupéré les nom de roles contenu dans le tableau listRole\n        mailAdmin = newEmail;\n    }\n\n    function changeTel(uint256 newTel) public    {\n        //récupéré les nom de roles contenu dans le tableau listRole\n        numeroTel = newTel;\n    }\n    function getIdAdmin( ) public view returns (string memory)\n    {\n        return idAdmin;\n    }\n\n    function getNomAdmin() public view returns (string memory)\n    {\n        return nomAdmin;\n    }\n\n    function getPrenomAdmin( ) public view returns (string memory)\n    {\n        return prenomAdmin;\n    }\n\n\n    function getTelephoneAdmin( ) public view returns (uint256)\n    {\n        return numeroTel;\n    }\n\n\n    function getMailAdmin() public view returns (string memory)\n    {\n        return mailAdmin;\n    }\n\n     function getPasswordMalade() public view returns (string memory)\n    {\n        return password;\n    }\n}\n",
  "sourcePath": "/home/unknown/memoire1.1/Esante/contracts/Administrateur.sol",
  "compiler": {
    "name": "solc",
    "version": "0.5.16+commit.9c3226ce.Emscripten.clang"
  },
  "schemaVersion": "3.2.1",
  "updatedAt": "2020-07-06T19:00:50.428Z",
  "networkType": "ethereum",
  "devdoc": {
    "methods": {}
  },
  "userdoc": {
    "methods": {}
  }
}