{
  "contractName": "Administrateur",
  "abi": [
    {
      "constant": true,
      "inputs": [
        {
          "internalType": "uint256",
          "name": "",
          "type": "uint256"
        }
      ],
      "name": "listRole",
      "outputs": [
        {
          "internalType": "string",
          "name": "",
          "type": "string"
        }
      ],
      "payable": false,
      "stateMutability": "view",
      "type": "function"
    },
    {
      "constant": false,
      "inputs": [
        {
          "internalType": "string",
          "name": "_idAdmin",
          "type": "string"
        },
        {
          "internalType": "string",
          "name": "_nomAdmin",
          "type": "string"
        },
        {
          "internalType": "string",
          "name": "_prenomAdmin",
          "type": "string"
        },
        {
          "internalType": "uint256",
          "name": "_numeroTel",
          "type": "uint256"
        },
        {
          "internalType": "string",
          "name": "_mailAdmin",
          "type": "string"
        },
        {
          "internalType": "string",
          "name": "_password",
          "type": "string"
        }
      ],
      "name": "initAdministrateur",
      "outputs": [],
      "payable": false,
      "stateMutability": "nonpayable",
      "type": "function"
    },
    {
      "constant": false,
      "inputs": [
        {
          "internalType": "string",
          "name": "nv_role",
          "type": "string"
        },
        {
          "internalType": "string",
          "name": "_permission",
          "type": "string"
        }
      ],
      "name": "addRole",
      "outputs": [],
      "payable": false,
      "stateMutability": "nonpayable",
      "type": "function"
    },
    {
      "constant": true,
      "inputs": [
        {
          "internalType": "string",
          "name": "_typerole",
          "type": "string"
        }
      ],
      "name": "getRoleByName",
      "outputs": [
        {
          "internalType": "string",
          "name": "",
          "type": "string"
        },
        {
          "internalType": "string",
          "name": "",
          "type": "string"
        }
      ],
      "payable": false,
      "stateMutability": "view",
      "type": "function"
    },
    {
      "constant": true,
      "inputs": [],
      "name": "getAllRole",
      "outputs": [
        {
          "internalType": "string[]",
          "name": "",
          "type": "string[]"
        }
      ],
      "payable": false,
      "stateMutability": "view",
      "type": "function"
    },
    {
      "constant": false,
      "inputs": [
        {
          "internalType": "string",
          "name": "newpassword",
          "type": "string"
        }
      ],
      "name": "changePassword",
      "outputs": [],
      "payable": false,
      "stateMutability": "nonpayable",
      "type": "function"
    }
  ],
  "bytecode": "0x608060405234801561001057600080fd5b50610bfe806100206000396000f3fe608060405234801561001057600080fd5b50600436106100625760003560e01c80634ff9cc511461006757806353a9020e14610083578063b11a0bf4146100b4578063dd517fae146100d0578063eb07d081146100ec578063fa1b7e161461011c575b600080fd5b610081600480360361007c91908101906106a4565b61013a565b005b61009d600480360361009891908101906106a4565b610154565b6040516100ab929190610a3b565b60405180910390f35b6100ce60048036036100c99190810190610751565b6102c3565b005b6100ea60048036036100e591908101906106e5565b610345565b005b61010660048036036101019190810190610852565b6103f4565b6040516101139190610a19565b60405180910390f35b6101246104ad565b60405161013191906109f7565b60405180910390f35b8060059080519060200190610150929190610596565b5050565b606080600060068460405161016991906109e0565b908152602001604051809103902090508060000181600101818054600181600116156101000203166002900480601f0160208091040260200160405190810160405280929190818152602001828054600181600116156101000203166002900480156102165780601f106101eb57610100808354040283529160200191610216565b820191906000526020600020905b8154815290600101906020018083116101f957829003601f168201915b50505050509150808054600181600116156101000203166002900480601f0160208091040260200160405190810160405280929190818152602001828054600181600116156101000203166002900480156102b25780601f10610287576101008083540402835291602001916102b2565b820191906000526020600020905b81548152906001019060200180831161029557829003601f168201915b505050505090509250925050915091565b85600090805190602001906102d9929190610596565b5084600190805190602001906102f0929190610596565b508360029080519060200190610307929190610596565b50826003819055508160049080519060200190610325929190610596565b50806005908051906020019061033c929190610596565b50505050505050565b8160068360405161035691906109e0565b9081526020016040518091039020600001908051906020019061037a929190610596565b508060068360405161038c91906109e0565b908152602001604051809103902060010190805190602001906103b0929190610596565b5060078290806001815401808255809150509060018203906000526020600020016000909192909190915090805190602001906103ee929190610596565b50505050565b6007818154811061040157fe5b906000526020600020016000915090508054600181600116156101000203166002900480601f0160208091040260200160405190810160405280929190818152602001828054600181600116156101000203166002900480156104a55780601f1061047a576101008083540402835291602001916104a5565b820191906000526020600020905b81548152906001019060200180831161048857829003601f168201915b505050505081565b60606007805480602002602001604051908101604052809291908181526020016000905b8282101561058d578382906000526020600020018054600181600116156101000203166002900480601f0160208091040260200160405190810160405280929190818152602001828054600181600116156101000203166002900480156105795780601f1061054e57610100808354040283529160200191610579565b820191906000526020600020905b81548152906001019060200180831161055c57829003601f168201915b5050505050815260200190600101906104d1565b50505050905090565b828054600181600116156101000203166002900490600052602060002090601f016020900481019282601f106105d757805160ff1916838001178555610605565b82800160010185558215610605579182015b828111156106045782518255916020019190600101906105e9565b5b5090506106129190610616565b5090565b61063891905b8082111561063457600081600090555060010161061c565b5090565b90565b600082601f83011261064c57600080fd5b813561065f61065a82610a9f565b610a72565b9150808252602083016020830185838301111561067b57600080fd5b610686838284610b51565b50505092915050565b60008135905061069e81610ba4565b92915050565b6000602082840312156106b657600080fd5b600082013567ffffffffffffffff8111156106d057600080fd5b6106dc8482850161063b565b91505092915050565b600080604083850312156106f857600080fd5b600083013567ffffffffffffffff81111561071257600080fd5b61071e8582860161063b565b925050602083013567ffffffffffffffff81111561073b57600080fd5b6107478582860161063b565b9150509250929050565b60008060008060008060c0878903121561076a57600080fd5b600087013567ffffffffffffffff81111561078457600080fd5b61079089828a0161063b565b965050602087013567ffffffffffffffff8111156107ad57600080fd5b6107b989828a0161063b565b955050604087013567ffffffffffffffff8111156107d657600080fd5b6107e289828a0161063b565b94505060606107f389828a0161068f565b935050608087013567ffffffffffffffff81111561081057600080fd5b61081c89828a0161063b565b92505060a087013567ffffffffffffffff81111561083957600080fd5b61084589828a0161063b565b9150509295509295509295565b60006020828403121561086457600080fd5b60006108728482850161068f565b91505092915050565b6000610887838361096e565b905092915050565b600061089a82610adb565b6108a48185610b09565b9350836020820285016108b685610acb565b8060005b858110156108f257848403895281516108d3858261087b565b94506108de83610afc565b925060208a019950506001810190506108ba565b50829750879550505050505092915050565b600061090f82610af1565b6109198185610b2b565b9350610929818560208601610b60565b61093281610b93565b840191505092915050565b600061094882610af1565b6109528185610b3c565b9350610962818560208601610b60565b80840191505092915050565b600061097982610ae6565b6109838185610b1a565b9350610993818560208601610b60565b61099c81610b93565b840191505092915050565b60006109b282610ae6565b6109bc8185610b2b565b93506109cc818560208601610b60565b6109d581610b93565b840191505092915050565b60006109ec828461093d565b915081905092915050565b60006020820190508181036000830152610a11818461088f565b905092915050565b60006020820190508181036000830152610a3381846109a7565b905092915050565b60006040820190508181036000830152610a558185610904565b90508181036020830152610a698184610904565b90509392505050565b6000604051905081810181811067ffffffffffffffff82111715610a9557600080fd5b8060405250919050565b600067ffffffffffffffff821115610ab657600080fd5b601f19601f8301169050602081019050919050565b6000819050602082019050919050565b600081519050919050565b600081519050919050565b600081519050919050565b6000602082019050919050565b600082825260208201905092915050565b600082825260208201905092915050565b600082825260208201905092915050565b600081905092915050565b6000819050919050565b82818337600083830152505050565b60005b83811015610b7e578082015181840152602081019050610b63565b83811115610b8d576000848401525b50505050565b6000601f19601f8301169050919050565b610bad81610b47565b8114610bb857600080fd5b5056fea365627a7a7231582089dc8627997379441c8470496bd10fea89313300a64196d2313609cbf0f516ae6c6578706572696d656e74616cf564736f6c63430005100040",
  "source": "// SPDX-License-Identifier: MIT\n\npragma solidity >=0.4.21 <0.7.0;\npragma experimental ABIEncoderV2;\nimport './PersonnelSante.sol';\n\n\ncontract Administrateur {\n\n    string idAdmin;\n    string nomAdmin;\n    string prenomAdmin;\n    uint256 numeroTel;\n    string mailAdmin;\n    string password;\n\n    //declaration de structure pour les roles\n    struct role_Struct {\n        string typeRole;\n        string permission;\n    }\n    mapping(string => role_Struct) Role;\n\n    string[] public listRole;\n\n    PersonnelSante Employe;\n\n    function initAdministrateur(\n        string memory _idAdmin,\n        string memory _nomAdmin,\n        string memory _prenomAdmin,\n        uint256 _numeroTel,\n        string memory _mailAdmin,\n        string memory _password\n    ) public {\n        idAdmin = _idAdmin;\n        nomAdmin = _nomAdmin;\n        prenomAdmin = _prenomAdmin;\n        numeroTel = _numeroTel;\n        mailAdmin = _mailAdmin;\n        password = _password;\n    }\n\n    function addRole(string memory nv_role, string memory _permission) public {\n        // uint256  newRole = listRole.length + 1;\n\n        Role[nv_role].typeRole = nv_role;\n        Role[nv_role].permission = _permission;\n\n        listRole.push(nv_role);\n    }\n\n    function getRoleByName(string memory _typerole)\n        public\n        view\n        returns (string memory, string memory)\n    {\n        //cree une celle (struct) pour contenir le role stoqué dans la blockchain\n        role_Struct storage tmp = Role[_typerole];\n\n        return (tmp.typeRole, tmp.permission);\n    }\n\n    function getAllRole() public view returns (string[] memory) {\n            return listRole;\n    }\n\n     function changePassword(string memory newpassword) public    {\n        //récupéré les nom de roles contenu dans le tableau listRole\n        password = newpassword;\n    }\n}\n",
  "sourcePath": "/home/unknown/Esante/contracts/Administrateur.sol",
  "compiler": {
    "name": "solc",
    "version": "0.5.16+commit.9c3226ce.Emscripten.clang"
  },
  "schemaVersion": "3.1.0",
  "updatedAt": "2020-06-30T21:32:41.977Z",
  "networkType": "ethereum",
  "devdoc": {
    "methods": {}
  },
  "userdoc": {
    "methods": {}
  }
}