{
  "contractName": "Administrateur",
  "abi": [
    {
      "constant": true,
      "inputs": [
        {
          "internalType": "uint256",
          "name": "",
          "type": "uint256"
        }
      ],
      "name": "listRole",
      "outputs": [
        {
          "internalType": "string",
          "name": "",
          "type": "string"
        }
      ],
      "payable": false,
      "stateMutability": "view",
      "type": "function"
    },
    {
      "constant": false,
      "inputs": [
        {
          "internalType": "string",
          "name": "_idAdmin",
          "type": "string"
        },
        {
          "internalType": "string",
          "name": "_nomAdmin",
          "type": "string"
        },
        {
          "internalType": "string",
          "name": "_prenomAdmin",
          "type": "string"
        },
        {
          "internalType": "uint256",
          "name": "_numeroTel",
          "type": "uint256"
        },
        {
          "internalType": "string",
          "name": "_mailAdmin",
          "type": "string"
        },
        {
          "internalType": "string",
          "name": "_password",
          "type": "string"
        }
      ],
      "name": "initAdministrateur",
      "outputs": [],
      "payable": false,
      "stateMutability": "nonpayable",
      "type": "function"
    },
    {
      "constant": false,
      "inputs": [
        {
          "internalType": "string",
          "name": "nv_role",
          "type": "string"
        },
        {
          "internalType": "string",
          "name": "_permission",
          "type": "string"
        }
      ],
      "name": "addRole",
      "outputs": [],
      "payable": false,
      "stateMutability": "nonpayable",
      "type": "function"
    },
    {
      "constant": true,
      "inputs": [
        {
          "internalType": "string",
          "name": "_typerole",
          "type": "string"
        }
      ],
      "name": "getRoleByName",
      "outputs": [
        {
          "internalType": "string",
          "name": "",
          "type": "string"
        },
        {
          "internalType": "string",
          "name": "",
          "type": "string"
        }
      ],
      "payable": false,
      "stateMutability": "view",
      "type": "function"
    },
    {
      "constant": true,
      "inputs": [],
      "name": "getAllRole",
      "outputs": [
        {
          "internalType": "string[]",
          "name": "",
          "type": "string[]"
        }
      ],
      "payable": false,
      "stateMutability": "view",
      "type": "function"
    },
    {
      "constant": false,
      "inputs": [
        {
          "internalType": "string",
          "name": "newpassword",
          "type": "string"
        }
      ],
      "name": "changePassword",
      "outputs": [],
      "payable": false,
      "stateMutability": "nonpayable",
      "type": "function"
    },
    {
      "constant": true,
      "inputs": [],
      "name": "getIdAdmin",
      "outputs": [
        {
          "internalType": "string",
          "name": "",
          "type": "string"
        }
      ],
      "payable": false,
      "stateMutability": "view",
      "type": "function"
    },
    {
      "constant": true,
      "inputs": [],
      "name": "getNomAdmin",
      "outputs": [
        {
          "internalType": "string",
          "name": "",
          "type": "string"
        }
      ],
      "payable": false,
      "stateMutability": "view",
      "type": "function"
    },
    {
      "constant": true,
      "inputs": [],
      "name": "getPrenomAdmin",
      "outputs": [
        {
          "internalType": "string",
          "name": "",
          "type": "string"
        }
      ],
      "payable": false,
      "stateMutability": "view",
      "type": "function"
    },
    {
      "constant": true,
      "inputs": [],
      "name": "getTelephoneAdmin",
      "outputs": [
        {
          "internalType": "uint256",
          "name": "",
          "type": "uint256"
        }
      ],
      "payable": false,
      "stateMutability": "view",
      "type": "function"
    },
    {
      "constant": true,
      "inputs": [],
      "name": "getMailAdmin",
      "outputs": [
        {
          "internalType": "string",
          "name": "",
          "type": "string"
        }
      ],
      "payable": false,
      "stateMutability": "view",
      "type": "function"
    },
    {
      "constant": true,
      "inputs": [],
      "name": "getPasswordMalade",
      "outputs": [
        {
          "internalType": "string",
          "name": "",
          "type": "string"
        }
      ],
      "payable": false,
      "stateMutability": "view",
      "type": "function"
    }
  ],
  "bytecode": "0x608060405234801561001057600080fd5b50611084806100206000396000f3fe608060405234801561001057600080fd5b50600436106100b45760003560e01c8063a807124811610071578063a80712481461017e578063b10457581461019c578063b11a0bf4146101ba578063dd517fae146101d6578063eb07d081146101f2578063fa1b7e1614610222576100b4565b8063225240b2146100b957806328caef03146100d75780634ff9cc51146100f557806353a9020e146101115780638921bcbe14610142578063a3234a1514610160575b600080fd5b6100c1610240565b6040516100ce9190610e84565b60405180910390f35b6100df6102e2565b6040516100ec9190610e84565b60405180910390f35b61010f600480360361010a9190810190610ade565b610384565b005b61012b60048036036101269190810190610ade565b61039e565b604051610139929190610ea6565b60405180910390f35b61014a61050d565b6040516101579190610e84565b60405180910390f35b6101686105af565b6040516101759190610edd565b60405180910390f35b6101866105b9565b6040516101939190610e84565b60405180910390f35b6101a461065b565b6040516101b19190610e84565b60405180910390f35b6101d460048036036101cf9190810190610b8b565b6106fd565b005b6101f060048036036101eb9190810190610b1f565b61077f565b005b61020c60048036036102079190810190610c8c565b61082e565b6040516102199190610e62565b60405180910390f35b61022a6108e7565b6040516102379190610e40565b60405180910390f35b606060018054600181600116156101000203166002900480601f0160208091040260200160405190810160405280929190818152602001828054600181600116156101000203166002900480156102d85780601f106102ad576101008083540402835291602001916102d8565b820191906000526020600020905b8154815290600101906020018083116102bb57829003601f168201915b5050505050905090565b606060008054600181600116156101000203166002900480601f01602080910402602001604051908101604052809291908181526020018280546001816001161561010002031660029004801561037a5780601f1061034f5761010080835404028352916020019161037a565b820191906000526020600020905b81548152906001019060200180831161035d57829003601f168201915b5050505050905090565b806005908051906020019061039a9291906109d0565b5050565b60608060006006846040516103b39190610e29565b908152602001604051809103902090508060000181600101818054600181600116156101000203166002900480601f0160208091040260200160405190810160405280929190818152602001828054600181600116156101000203166002900480156104605780601f1061043557610100808354040283529160200191610460565b820191906000526020600020905b81548152906001019060200180831161044357829003601f168201915b50505050509150808054600181600116156101000203166002900480601f0160208091040260200160405190810160405280929190818152602001828054600181600116156101000203166002900480156104fc5780601f106104d1576101008083540402835291602001916104fc565b820191906000526020600020905b8154815290600101906020018083116104df57829003601f168201915b505050505090509250925050915091565b606060028054600181600116156101000203166002900480601f0160208091040260200160405190810160405280929190818152602001828054600181600116156101000203166002900480156105a55780601f1061057a576101008083540402835291602001916105a5565b820191906000526020600020905b81548152906001019060200180831161058857829003601f168201915b5050505050905090565b6000600354905090565b606060058054600181600116156101000203166002900480601f0160208091040260200160405190810160405280929190818152602001828054600181600116156101000203166002900480156106515780601f1061062657610100808354040283529160200191610651565b820191906000526020600020905b81548152906001019060200180831161063457829003601f168201915b5050505050905090565b606060048054600181600116156101000203166002900480601f0160208091040260200160405190810160405280929190818152602001828054600181600116156101000203166002900480156106f35780601f106106c8576101008083540402835291602001916106f3565b820191906000526020600020905b8154815290600101906020018083116106d657829003601f168201915b5050505050905090565b85600090805190602001906107139291906109d0565b50846001908051906020019061072a9291906109d0565b5083600290805190602001906107419291906109d0565b5082600381905550816004908051906020019061075f9291906109d0565b5080600590805190602001906107769291906109d0565b50505050505050565b816006836040516107909190610e29565b908152602001604051809103902060000190805190602001906107b49291906109d0565b50806006836040516107c69190610e29565b908152602001604051809103902060010190805190602001906107ea9291906109d0565b5060078290806001815401808255809150509060018203906000526020600020016000909192909190915090805190602001906108289291906109d0565b50505050565b6007818154811061083b57fe5b906000526020600020016000915090508054600181600116156101000203166002900480601f0160208091040260200160405190810160405280929190818152602001828054600181600116156101000203166002900480156108df5780601f106108b4576101008083540402835291602001916108df565b820191906000526020600020905b8154815290600101906020018083116108c257829003601f168201915b505050505081565b60606007805480602002602001604051908101604052809291908181526020016000905b828210156109c7578382906000526020600020018054600181600116156101000203166002900480601f0160208091040260200160405190810160405280929190818152602001828054600181600116156101000203166002900480156109b35780601f10610988576101008083540402835291602001916109b3565b820191906000526020600020905b81548152906001019060200180831161099657829003601f168201915b50505050508152602001906001019061090b565b50505050905090565b828054600181600116156101000203166002900490600052602060002090601f016020900481019282601f10610a1157805160ff1916838001178555610a3f565b82800160010185558215610a3f579182015b82811115610a3e578251825591602001919060010190610a23565b5b509050610a4c9190610a50565b5090565b610a7291905b80821115610a6e576000816000905550600101610a56565b5090565b90565b600082601f830112610a8657600080fd5b8135610a99610a9482610f25565b610ef8565b91508082526020830160208301858383011115610ab557600080fd5b610ac0838284610fd7565b50505092915050565b600081359050610ad88161102a565b92915050565b600060208284031215610af057600080fd5b600082013567ffffffffffffffff811115610b0a57600080fd5b610b1684828501610a75565b91505092915050565b60008060408385031215610b3257600080fd5b600083013567ffffffffffffffff811115610b4c57600080fd5b610b5885828601610a75565b925050602083013567ffffffffffffffff811115610b7557600080fd5b610b8185828601610a75565b9150509250929050565b60008060008060008060c08789031215610ba457600080fd5b600087013567ffffffffffffffff811115610bbe57600080fd5b610bca89828a01610a75565b965050602087013567ffffffffffffffff811115610be757600080fd5b610bf389828a01610a75565b955050604087013567ffffffffffffffff811115610c1057600080fd5b610c1c89828a01610a75565b9450506060610c2d89828a01610ac9565b935050608087013567ffffffffffffffff811115610c4a57600080fd5b610c5689828a01610a75565b92505060a087013567ffffffffffffffff811115610c7357600080fd5b610c7f89828a01610a75565b9150509295509295509295565b600060208284031215610c9e57600080fd5b6000610cac84828501610ac9565b91505092915050565b6000610cc18383610da8565b905092915050565b6000610cd482610f61565b610cde8185610f8f565b935083602082028501610cf085610f51565b8060005b85811015610d2c5784840389528151610d0d8582610cb5565b9450610d1883610f82565b925060208a01995050600181019050610cf4565b50829750879550505050505092915050565b6000610d4982610f77565b610d538185610fb1565b9350610d63818560208601610fe6565b610d6c81611019565b840191505092915050565b6000610d8282610f77565b610d8c8185610fc2565b9350610d9c818560208601610fe6565b80840191505092915050565b6000610db382610f6c565b610dbd8185610fa0565b9350610dcd818560208601610fe6565b610dd681611019565b840191505092915050565b6000610dec82610f6c565b610df68185610fb1565b9350610e06818560208601610fe6565b610e0f81611019565b840191505092915050565b610e2381610fcd565b82525050565b6000610e358284610d77565b915081905092915050565b60006020820190508181036000830152610e5a8184610cc9565b905092915050565b60006020820190508181036000830152610e7c8184610de1565b905092915050565b60006020820190508181036000830152610e9e8184610d3e565b905092915050565b60006040820190508181036000830152610ec08185610d3e565b90508181036020830152610ed48184610d3e565b90509392505050565b6000602082019050610ef26000830184610e1a565b92915050565b6000604051905081810181811067ffffffffffffffff82111715610f1b57600080fd5b8060405250919050565b600067ffffffffffffffff821115610f3c57600080fd5b601f19601f8301169050602081019050919050565b6000819050602082019050919050565b600081519050919050565b600081519050919050565b600081519050919050565b6000602082019050919050565b600082825260208201905092915050565b600082825260208201905092915050565b600082825260208201905092915050565b600081905092915050565b6000819050919050565b82818337600083830152505050565b60005b83811015611004578082015181840152602081019050610fe9565b83811115611013576000848401525b50505050565b6000601f19601f8301169050919050565b61103381610fcd565b811461103e57600080fd5b5056fea365627a7a72315820518f1f763f29c4c8921f1a50435673ea6b97fcbb0d6af1f8cc02219863eaaef56c6578706572696d656e74616cf564736f6c63430005100040",
  "source": "// SPDX-License-Identifier: MIT\r\n\r\npragma solidity >=0.4.21 <0.7.0;\r\npragma experimental ABIEncoderV2;\r\nimport './PersonnelSante.sol';\r\n\r\n\r\ncontract Administrateur {\r\n\r\n    string idAdmin;\r\n    string nomAdmin;\r\n    string prenomAdmin;\r\n    uint256 numeroTel;\r\n    string mailAdmin;\r\n    string password;\r\n\r\n    //declaration de structure pour les roles\r\n    struct role_Struct {\r\n        string typeRole;\r\n        string permission;\r\n    }\r\n    mapping(string => role_Struct) Role;\r\n\r\n    string[] public listRole;\r\n\r\n    PersonnelSante Employe;\r\n\r\n    function initAdministrateur(\r\n        string memory _idAdmin,\r\n        string memory _nomAdmin,\r\n        string memory _prenomAdmin,\r\n        uint256 _numeroTel,\r\n        string memory _mailAdmin,\r\n        string memory _password\r\n    ) public {\r\n        idAdmin = _idAdmin;\r\n        nomAdmin = _nomAdmin;\r\n        prenomAdmin = _prenomAdmin;\r\n        numeroTel = _numeroTel;\r\n        mailAdmin = _mailAdmin;\r\n        password = _password;\r\n    }\r\n\r\n    function addRole(string memory nv_role, string memory _permission) public {\r\n        // uint256  newRole = listRole.length + 1;\r\n\r\n        Role[nv_role].typeRole = nv_role;\r\n        Role[nv_role].permission = _permission;\r\n\r\n        listRole.push(nv_role);\r\n    }\r\n\r\n    function getRoleByName(string memory _typerole)\r\n        public\r\n        view\r\n        returns (string memory, string memory)\r\n    {\r\n        //cree une celle (struct) pour contenir le role stoqué dans la blockchain\r\n        role_Struct storage tmp = Role[_typerole];\r\n\r\n        return (tmp.typeRole, tmp.permission);\r\n    }\r\n\r\n    function getAllRole() public view returns (string[] memory) {\r\n            return listRole;\r\n    }\r\n\r\n     function changePassword(string memory newpassword) public    {\r\n        //récupéré les nom de roles contenu dans le tableau listRole\r\n        password = newpassword;\r\n    }\r\n\r\n\r\n    function getIdAdmin( ) public view returns (string memory)\r\n    {\r\n        return idAdmin;\r\n    }\r\n\r\n    function getNomAdmin() public view returns (string memory)\r\n    {\r\n        return nomAdmin;\r\n    }\r\n\r\n    function getPrenomAdmin( ) public view returns (string memory)\r\n    {\r\n        return prenomAdmin;\r\n    }\r\n\r\n\r\n    function getTelephoneAdmin( ) public view returns (uint256)\r\n    {\r\n        return numeroTel;\r\n    }\r\n\r\n\r\n    function getMailAdmin() public view returns (string memory)\r\n    {\r\n        return mailAdmin;\r\n    }\r\n\r\n     function getPasswordMalade() public view returns (string memory)\r\n    {\r\n        return password;\r\n    }\r\n}\r\n",
  "sourcePath": "C:\\Users\\Abdelillah\\Desktop\\Teeeeeeest\\Esante\\contracts\\Administrateur.sol",
  "compiler": {
    "name": "solc",
    "version": "0.5.16+commit.9c3226ce.Emscripten.clang"
  },
  "schemaVersion": "3.2.1",
  "updatedAt": "2020-07-04T12:59:51.191Z",
  "networkType": "ethereum",
  "devdoc": {
    "methods": {}
  },
  "userdoc": {
    "methods": {}
  }
}