{
  "contractName": "Malade",
  "abi": [
    {
      "constant": true,
      "inputs": [
        {
          "internalType": "uint256",
          "name": "",
          "type": "uint256"
        }
      ],
      "name": "listMalade",
      "outputs": [
        {
          "internalType": "uint256",
          "name": "",
          "type": "uint256"
        }
      ],
      "payable": false,
      "stateMutability": "view",
      "type": "function"
    },
    {
      "constant": true,
      "inputs": [],
      "name": "nombreMalade",
      "outputs": [
        {
          "internalType": "uint256",
          "name": "",
          "type": "uint256"
        }
      ],
      "payable": false,
      "stateMutability": "view",
      "type": "function"
    },
    {
      "constant": false,
      "inputs": [
        {
          "internalType": "string",
          "name": "_nomMalade",
          "type": "string"
        },
        {
          "internalType": "string",
          "name": "_prenomMalade",
          "type": "string"
        },
        {
          "internalType": "string",
          "name": "_addressMalade",
          "type": "string"
        },
        {
          "internalType": "string",
          "name": "_sexeMalade",
          "type": "string"
        },
        {
          "internalType": "uint256",
          "name": "_telephoneMalade",
          "type": "uint256"
        },
        {
          "internalType": "string",
          "name": "_mailMalade",
          "type": "string"
        },
        {
          "internalType": "string",
          "name": "_passwordMalade",
          "type": "string"
        },
        {
          "internalType": "address",
          "name": "_createur",
          "type": "address"
        }
      ],
      "name": "setNewMalade",
      "outputs": [],
      "payable": false,
      "stateMutability": "nonpayable",
      "type": "function"
    },
    {
      "constant": false,
      "inputs": [
        {
          "internalType": "string",
          "name": "_mailMalade",
          "type": "string"
        },
        {
          "internalType": "address",
          "name": "adFonctionnaire",
          "type": "address"
        }
      ],
      "name": "AddNewAcces",
      "outputs": [],
      "payable": false,
      "stateMutability": "nonpayable",
      "type": "function"
    },
    {
      "constant": true,
      "inputs": [
        {
          "internalType": "string",
          "name": "_mailMalade",
          "type": "string"
        }
      ],
      "name": "getPersonneOntAcces",
      "outputs": [
        {
          "internalType": "address[]",
          "name": "",
          "type": "address[]"
        }
      ],
      "payable": false,
      "stateMutability": "view",
      "type": "function"
    },
    {
      "constant": true,
      "inputs": [
        {
          "internalType": "address",
          "name": "addressPersonnel",
          "type": "address"
        }
      ],
      "name": "getIdMaladeWhoPersonnelHaveAccess",
      "outputs": [
        {
          "internalType": "string[]",
          "name": "",
          "type": "string[]"
        }
      ],
      "payable": false,
      "stateMutability": "view",
      "type": "function"
    },
    {
      "constant": true,
      "inputs": [],
      "name": "getNombreMalade",
      "outputs": [
        {
          "internalType": "uint256",
          "name": "",
          "type": "uint256"
        }
      ],
      "payable": false,
      "stateMutability": "view",
      "type": "function"
    },
    {
      "constant": true,
      "inputs": [],
      "name": "getAllid",
      "outputs": [
        {
          "internalType": "uint256[]",
          "name": "",
          "type": "uint256[]"
        }
      ],
      "payable": false,
      "stateMutability": "view",
      "type": "function"
    },
    {
      "constant": true,
      "inputs": [
        {
          "internalType": "string",
          "name": "_mailMalade",
          "type": "string"
        }
      ],
      "name": "getNomMalade",
      "outputs": [
        {
          "internalType": "string",
          "name": "",
          "type": "string"
        }
      ],
      "payable": false,
      "stateMutability": "view",
      "type": "function"
    },
    {
      "constant": false,
      "inputs": [
        {
          "internalType": "string",
          "name": "_mailMalade",
          "type": "string"
        },
        {
          "internalType": "string",
          "name": "newNom",
          "type": "string"
        }
      ],
      "name": "setNomMalade",
      "outputs": [
        {
          "internalType": "string",
          "name": "",
          "type": "string"
        }
      ],
      "payable": false,
      "stateMutability": "nonpayable",
      "type": "function"
    },
    {
      "constant": true,
      "inputs": [
        {
          "internalType": "string",
          "name": "_mailMalade",
          "type": "string"
        }
      ],
      "name": "getPrenomMalade",
      "outputs": [
        {
          "internalType": "string",
          "name": "",
          "type": "string"
        }
      ],
      "payable": false,
      "stateMutability": "view",
      "type": "function"
    },
    {
      "constant": false,
      "inputs": [
        {
          "internalType": "string",
          "name": "_mailMalade",
          "type": "string"
        },
        {
          "internalType": "string",
          "name": "newPrenom",
          "type": "string"
        }
      ],
      "name": "setPrenomMalade",
      "outputs": [
        {
          "internalType": "string",
          "name": "",
          "type": "string"
        }
      ],
      "payable": false,
      "stateMutability": "nonpayable",
      "type": "function"
    },
    {
      "constant": true,
      "inputs": [
        {
          "internalType": "string",
          "name": "_mailMalade",
          "type": "string"
        }
      ],
      "name": "getTelephoneMalade",
      "outputs": [
        {
          "internalType": "uint256",
          "name": "",
          "type": "uint256"
        }
      ],
      "payable": false,
      "stateMutability": "view",
      "type": "function"
    },
    {
      "constant": false,
      "inputs": [
        {
          "internalType": "string",
          "name": "_mailMalade",
          "type": "string"
        },
        {
          "internalType": "uint256",
          "name": "newTel",
          "type": "uint256"
        }
      ],
      "name": "setTelephoneMalade",
      "outputs": [
        {
          "internalType": "uint256",
          "name": "",
          "type": "uint256"
        }
      ],
      "payable": false,
      "stateMutability": "nonpayable",
      "type": "function"
    },
    {
      "constant": true,
      "inputs": [
        {
          "internalType": "string",
          "name": "_mailMalade",
          "type": "string"
        }
      ],
      "name": "getAddressMalade",
      "outputs": [
        {
          "internalType": "string",
          "name": "",
          "type": "string"
        }
      ],
      "payable": false,
      "stateMutability": "view",
      "type": "function"
    },
    {
      "constant": false,
      "inputs": [
        {
          "internalType": "string",
          "name": "_mailMalade",
          "type": "string"
        },
        {
          "internalType": "string",
          "name": "newAddress",
          "type": "string"
        }
      ],
      "name": "setAddressMalade",
      "outputs": [
        {
          "internalType": "string",
          "name": "",
          "type": "string"
        }
      ],
      "payable": false,
      "stateMutability": "nonpayable",
      "type": "function"
    },
    {
      "constant": true,
      "inputs": [
        {
          "internalType": "string",
          "name": "_mailMalade",
          "type": "string"
        }
      ],
      "name": "getMailMalade",
      "outputs": [
        {
          "internalType": "string",
          "name": "",
          "type": "string"
        }
      ],
      "payable": false,
      "stateMutability": "view",
      "type": "function"
    },
    {
      "constant": false,
      "inputs": [
        {
          "internalType": "string",
          "name": "_mailMalade",
          "type": "string"
        },
        {
          "internalType": "string",
          "name": "newMail",
          "type": "string"
        }
      ],
      "name": "setMailMalade",
      "outputs": [
        {
          "internalType": "string",
          "name": "",
          "type": "string"
        }
      ],
      "payable": false,
      "stateMutability": "nonpayable",
      "type": "function"
    },
    {
      "constant": true,
      "inputs": [
        {
          "internalType": "string",
          "name": "_mailMalade",
          "type": "string"
        }
      ],
      "name": "getPasswordMalade",
      "outputs": [
        {
          "internalType": "string",
          "name": "",
          "type": "string"
        }
      ],
      "payable": false,
      "stateMutability": "view",
      "type": "function"
    },
    {
      "constant": false,
      "inputs": [
        {
          "internalType": "string",
          "name": "_mailMalade",
          "type": "string"
        },
        {
          "internalType": "string",
          "name": "newPassword",
          "type": "string"
        }
      ],
      "name": "setPasswordMalade",
      "outputs": [
        {
          "internalType": "string",
          "name": "",
          "type": "string"
        }
      ],
      "payable": false,
      "stateMutability": "nonpayable",
      "type": "function"
    }
  ],
  "bytecode": "0x608060405234801561001057600080fd5b50611e59806100206000396000f3fe608060405234801561001057600080fd5b506004361061012c5760003560e01c806367bb0679116100ad578063a8c4775311610071578063a8c47753146103b5578063c2ecd96a146103e5578063d52cccf414610415578063d5ee1ed314610433578063fca8c4db146104635761012c565b806367bb0679146102eb578063685d99ef1461031b578063822a89451461034b5780638b99f324146103675780638da075bc146103855761012c565b806354aa43b9116100f457806354aa43b91461020f57806358c976f81461023f5780635b31e1581461025b57806363e801201461028b5780636566fa3b146102bb5761012c565b806313d72b3a146101315780633736f880146101615780633b9f0c811461017f5780633d25f5bd146101af5780634841741f146101df575b600080fd5b61014b60048036036101469190810190611653565b610493565b6040516101589190611b6f565b60405180910390f35b610169610563565b6040516101769190611bb3565b60405180910390f35b610199600480360361019491908101906116e8565b6105bb565b6040516101a69190611bd5565b60405180910390f35b6101c960048036036101c491908101906116e8565b6106ba565b6040516101d69190611bd5565b60405180910390f35b6101f960048036036101f49190810190611653565b6107b9565b6040516102069190611bd5565b60405180910390f35b610229600480360361022491908101906116e8565b610881565b6040516102369190611bd5565b60405180910390f35b61025960048036036102549190810190611754565b610980565b005b610275600480360361027091908101906116e8565b610c62565b6040516102829190611bd5565b60405180910390f35b6102a560048036036102a09190810190611653565b610d61565b6040516102b29190611bd5565b60405180910390f35b6102d560048036036102d0919081019061162a565b610e29565b6040516102e29190611b91565b60405180910390f35b610305600480360361030091908101906116e8565b61103a565b6040516103129190611bd5565b60405180910390f35b61033560048036036103309190810190611653565b611139565b6040516103429190611bf7565b60405180910390f35b61036560048036036103609190810190611694565b611169565b005b61036f61120d565b60405161037c9190611bf7565b60405180910390f35b61039f600480360361039a91908101906118ea565b611217565b6040516103ac9190611bf7565b60405180910390f35b6103cf60048036036103ca9190810190611896565b611238565b6040516103dc9190611bf7565b60405180910390f35b6103ff60048036036103fa9190810190611653565b61128f565b60405161040c9190611bd5565b60405180910390f35b61041d611357565b60405161042a9190611bf7565b60405180910390f35b61044d60048036036104489190810190611653565b61135d565b60405161045a9190611bd5565b60405180910390f35b61047d60048036036104789190810190611653565b611425565b60405161048a9190611bd5565b60405180910390f35b6060600080836040516104a69190611b58565b908152602001604051809103902090506000600160008360000154815260200190815260200160002090508060010180548060200260200160405190810160405280929190818152602001828054801561055557602002820191906000526020600020905b8160009054906101000a900473ffffffffffffffffffffffffffffffffffffffff1673ffffffffffffffffffffffffffffffffffffffff168152602001906001019080831161050b575b505050505092505050919050565b606060028054806020026020016040519081016040528092919081815260200182805480156105b157602002820191906000526020600020905b81548152602001906001019080831161059d575b5050505050905090565b6060816000846040516105ce9190611b58565b908152602001604051809103902060060190805190602001906105f29291906114ed565b50600080846040516106049190611b58565b90815260200160405180910390209050806006018054600181600116156101000203166002900480601f0160208091040260200160405190810160405280929190818152602001828054600181600116156101000203166002900480156106ac5780601f10610681576101008083540402835291602001916106ac565b820191906000526020600020905b81548152906001019060200180831161068f57829003601f168201915b505050505091505092915050565b6060816000846040516106cd9190611b58565b908152602001604051809103902060030190805190602001906106f19291906114ed565b50600080846040516107039190611b58565b90815260200160405180910390209050806003018054600181600116156101000203166002900480601f0160208091040260200160405190810160405280929190818152602001828054600181600116156101000203166002900480156107ab5780601f10610780576101008083540402835291602001916107ab565b820191906000526020600020905b81548152906001019060200180831161078e57829003601f168201915b505050505091505092915050565b6060600080836040516107cc9190611b58565b90815260200160405180910390209050806006018054600181600116156101000203166002900480601f0160208091040260200160405190810160405280929190818152602001828054600181600116156101000203166002900480156108745780601f1061084957610100808354040283529160200191610874565b820191906000526020600020905b81548152906001019060200180831161085757829003601f168201915b5050505050915050919050565b6060816000846040516108949190611b58565b908152602001604051809103902060050190805190602001906108b89291906114ed565b50600080846040516108ca9190611b58565b90815260200160405180910390209050806005018054600181600116156101000203166002900480601f0160208091040260200160405190810160405280929190818152602001828054600181600116156101000203166002900480156109725780601f1061094757610100808354040283529160200191610972565b820191906000526020600020905b81548152906001019060200180831161095557829003601f168201915b505050505091505092915050565b6001600280549050016003819055506003546000846040516109a29190611b58565b908152602001604051809103902060000181905550876000846040516109c89190611b58565b908152602001604051809103902060020190805190602001906109ec9291906114ed565b50866000846040516109fe9190611b58565b90815260200160405180910390206003019080519060200190610a229291906114ed565b5084600084604051610a349190611b58565b90815260200160405180910390206004019080519060200190610a589291906114ed565b5085600084604051610a6a9190611b58565b90815260200160405180910390206005019080519060200190610a8e9291906114ed565b5083600084604051610aa09190611b58565b90815260200160405180910390206001018190555082600084604051610ac69190611b58565b90815260200160405180910390206006019080519060200190610aea9291906114ed565b5081600084604051610afc9190611b58565b90815260200160405180910390206007019080519060200190610b209291906114ed565b5080600084604051610b329190611b58565b908152602001604051809103902060080160006101000a81548173ffffffffffffffffffffffffffffffffffffffff021916908373ffffffffffffffffffffffffffffffffffffffff160217905550826001600060035481526020019081526020016000206000019080519060200190610bad9291906114ed565b506001600060035481526020019081526020016000206001018190806001815401808255809150509060018203906000526020600020016000909192909190916101000a81548173ffffffffffffffffffffffffffffffffffffffff021916908373ffffffffffffffffffffffffffffffffffffffff16021790555050600260035490806001815401808255809150509060018203906000526020600020016000909192909190915055505050505050505050565b606081600084604051610c759190611b58565b90815260200160405180910390206007019080519060200190610c999291906114ed565b5060008084604051610cab9190611b58565b90815260200160405180910390209050806007018054600181600116156101000203166002900480601f016020809104026020016040519081016040528092919081815260200182805460018160011615610100020316600290048015610d535780601f10610d2857610100808354040283529160200191610d53565b820191906000526020600020905b815481529060010190602001808311610d3657829003601f168201915b505050505091505092915050565b606060008083604051610d749190611b58565b90815260200160405180910390209050806005018054600181600116156101000203166002900480601f016020809104026020016040519081016040528092919081815260200182805460018160011615610100020316600290048015610e1c5780601f10610df157610100808354040283529160200191610e1c565b820191906000526020600020905b815481529060010190602001808311610dff57829003601f168201915b5050505050915050919050565b6060610e3361156d565b606060008090505b60035481101561102f5760016000828152602001908152602001600020604051806040016040529081600082018054600181600116156101000203166002900480601f016020809104026020016040519081016040528092919081815260200182805460018160011615610100020316600290048015610efc5780601f10610ed157610100808354040283529160200191610efc565b820191906000526020600020905b815481529060010190602001808311610edf57829003601f168201915b5050505050815260200160018201805480602002602001604051908101604052809291908181526020018280548015610f8a57602002820191906000526020600020905b8160009054906101000a900473ffffffffffffffffffffffffffffffffffffffff1673ffffffffffffffffffffffffffffffffffffffff1681526020019060010190808311610f40575b505050505081525050925060008090505b836020015151811015611021578573ffffffffffffffffffffffffffffffffffffffff1684602001518281518110610fcf57fe5b602002602001015173ffffffffffffffffffffffffffffffffffffffff1614156110145783600001518360018551018151811061100857fe5b60200260200101819052505b8080600101915050610f9b565b508080600101915050610e3b565b508092505050919050565b60608160008460405161104d9190611b58565b908152602001604051809103902060020190805190602001906110719291906114ed565b50600080846040516110839190611b58565b90815260200160405180910390209050806002018054600181600116156101000203166002900480601f01602080910402602001604051908101604052809291908181526020018280546001816001161561010002031660029004801561112b5780601f106111005761010080835404028352916020019161112b565b820191906000526020600020905b81548152906001019060200180831161110e57829003601f168201915b505050505091505092915050565b60008060008360405161114c9190611b58565b908152602001604051809103902090508060010154915050919050565b6000808360405161117a9190611b58565b9081526020016040518091039020905060016000826000015481526020019081526020016000206001018290806001815401808255809150509060018203906000526020600020016000909192909190916101000a81548173ffffffffffffffffffffffffffffffffffffffff021916908373ffffffffffffffffffffffffffffffffffffffff16021790555050505050565b6000600354905090565b6002818154811061122457fe5b906000526020600020016000915090505481565b60008160008460405161124b9190611b58565b908152602001604051809103902060010181905550600080846040516112719190611b58565b90815260200160405180910390209050806001015491505092915050565b6060600080836040516112a29190611b58565b90815260200160405180910390209050806007018054600181600116156101000203166002900480601f01602080910402602001604051908101604052809291908181526020018280546001816001161561010002031660029004801561134a5780601f1061131f5761010080835404028352916020019161134a565b820191906000526020600020905b81548152906001019060200180831161132d57829003601f168201915b5050505050915050919050565b60035481565b6060600080836040516113709190611b58565b90815260200160405180910390209050806002018054600181600116156101000203166002900480601f0160208091040260200160405190810160405280929190818152602001828054600181600116156101000203166002900480156114185780601f106113ed57610100808354040283529160200191611418565b820191906000526020600020905b8154815290600101906020018083116113fb57829003601f168201915b5050505050915050919050565b6060600080836040516114389190611b58565b90815260200160405180910390209050806003018054600181600116156101000203166002900480601f0160208091040260200160405190810160405280929190818152602001828054600181600116156101000203166002900480156114e05780601f106114b5576101008083540402835291602001916114e0565b820191906000526020600020905b8154815290600101906020018083116114c357829003601f168201915b5050505050915050919050565b828054600181600116156101000203166002900490600052602060002090601f016020900481019282601f1061152e57805160ff191683800117855561155c565b8280016001018555821561155c579182015b8281111561155b578251825591602001919060010190611540565b5b5090506115699190611587565b5090565b604051806040016040528060608152602001606081525090565b6115a991905b808211156115a557600081600090555060010161158d565b5090565b90565b6000813590506115bb81611de8565b92915050565b600082601f8301126115d257600080fd5b81356115e56115e082611c3f565b611c12565b9150808252602083016020830185838301111561160157600080fd5b61160c838284611d95565b50505092915050565b60008135905061162481611dff565b92915050565b60006020828403121561163c57600080fd5b600061164a848285016115ac565b91505092915050565b60006020828403121561166557600080fd5b600082013567ffffffffffffffff81111561167f57600080fd5b61168b848285016115c1565b91505092915050565b600080604083850312156116a757600080fd5b600083013567ffffffffffffffff8111156116c157600080fd5b6116cd858286016115c1565b92505060206116de858286016115ac565b9150509250929050565b600080604083850312156116fb57600080fd5b600083013567ffffffffffffffff81111561171557600080fd5b611721858286016115c1565b925050602083013567ffffffffffffffff81111561173e57600080fd5b61174a858286016115c1565b9150509250929050565b600080600080600080600080610100898b03121561177157600080fd5b600089013567ffffffffffffffff81111561178b57600080fd5b6117978b828c016115c1565b985050602089013567ffffffffffffffff8111156117b457600080fd5b6117c08b828c016115c1565b975050604089013567ffffffffffffffff8111156117dd57600080fd5b6117e98b828c016115c1565b965050606089013567ffffffffffffffff81111561180657600080fd5b6118128b828c016115c1565b95505060806118238b828c01611615565b94505060a089013567ffffffffffffffff81111561184057600080fd5b61184c8b828c016115c1565b93505060c089013567ffffffffffffffff81111561186957600080fd5b6118758b828c016115c1565b92505060e06118868b828c016115ac565b9150509295985092959890939650565b600080604083850312156118a957600080fd5b600083013567ffffffffffffffff8111156118c357600080fd5b6118cf858286016115c1565b92505060206118e085828601611615565b9150509250929050565b6000602082840312156118fc57600080fd5b600061190a84828501611615565b91505092915050565b600061191f8383611957565b60208301905092915050565b60006119378383611b01565b905092915050565b600061194b8383611b3a565b60208301905092915050565b61196081611d59565b82525050565b600061197182611c9b565b61197b8185611cf9565b935061198683611c6b565b8060005b838110156119b757815161199e8882611913565b97506119a983611cd2565b92505060018101905061198a565b5085935050505092915050565b60006119cf82611ca6565b6119d98185611d0a565b9350836020820285016119eb85611c7b565b8060005b85811015611a275784840389528151611a08858261192b565b9450611a1383611cdf565b925060208a019950506001810190506119ef565b50829750879550505050505092915050565b6000611a4482611cb1565b611a4e8185611d1b565b9350611a5983611c8b565b8060005b83811015611a8a578151611a71888261193f565b9750611a7c83611cec565b925050600181019050611a5d565b5085935050505092915050565b6000611aa282611cc7565b611aac8185611d3d565b9350611abc818560208601611da4565b611ac581611dd7565b840191505092915050565b6000611adb82611cc7565b611ae58185611d4e565b9350611af5818560208601611da4565b80840191505092915050565b6000611b0c82611cbc565b611b168185611d2c565b9350611b26818560208601611da4565b611b2f81611dd7565b840191505092915050565b611b4381611d8b565b82525050565b611b5281611d8b565b82525050565b6000611b648284611ad0565b915081905092915050565b60006020820190508181036000830152611b898184611966565b905092915050565b60006020820190508181036000830152611bab81846119c4565b905092915050565b60006020820190508181036000830152611bcd8184611a39565b905092915050565b60006020820190508181036000830152611bef8184611a97565b905092915050565b6000602082019050611c0c6000830184611b49565b92915050565b6000604051905081810181811067ffffffffffffffff82111715611c3557600080fd5b8060405250919050565b600067ffffffffffffffff821115611c5657600080fd5b601f19601f8301169050602081019050919050565b6000819050602082019050919050565b6000819050602082019050919050565b6000819050602082019050919050565b600081519050919050565b600081519050919050565b600081519050919050565b600081519050919050565b600081519050919050565b6000602082019050919050565b6000602082019050919050565b6000602082019050919050565b600082825260208201905092915050565b600082825260208201905092915050565b600082825260208201905092915050565b600082825260208201905092915050565b600082825260208201905092915050565b600081905092915050565b6000611d6482611d6b565b9050919050565b600073ffffffffffffffffffffffffffffffffffffffff82169050919050565b6000819050919050565b82818337600083830152505050565b60005b83811015611dc2578082015181840152602081019050611da7565b83811115611dd1576000848401525b50505050565b6000601f19601f8301169050919050565b611df181611d59565b8114611dfc57600080fd5b50565b611e0881611d8b565b8114611e1357600080fd5b5056fea365627a7a72315820450c1f2cb97d73e4de8c9b36367729de90bc6caba121d15ab5ad5b789a0154226c6578706572696d656e74616cf564736f6c63430005100040",
  "source": "\n\n// SPDX-License-Identifier: MIT\n\npragma solidity >=0.4.21 <0.7.0;\npragma experimental ABIEncoderV2;\n\n\ncontract Malade {\n\n    struct block_Malade {\n        uint256 idMalade;\n        uint256 telephoneMalade;\n        string nomMalade;\n        string prenomMalade;\n        string sexeMalade;\n        string addressMalade;\n        string mailMalade;\n        string passwordMalade;\n        address createurMalade;\n    }\n\n    struct liste_access_chaque_Malade{\n\n    string mailMalade;\n    address[] Personnes_on_accees;\n\n    }\n\n\n    mapping(string => block_Malade) Malade_Struct;\n\n    mapping(uint256 => liste_access_chaque_Malade) Access;\n\n    uint256[] public listMalade;\n    uint256 public nombreMalade;\n\n\n    function setNewMalade(\n        string memory _nomMalade,\n        string memory _prenomMalade,\n        string memory _addressMalade,\n        string memory _sexeMalade,\n        uint256 _telephoneMalade,\n        string memory _mailMalade,\n        string memory _passwordMalade,\n        address _createur\n    ) public {\n\n        nombreMalade = listMalade.length + 1;\n\n        Malade_Struct[_mailMalade].idMalade = nombreMalade;\n        Malade_Struct[_mailMalade].nomMalade = _nomMalade;\n        Malade_Struct[_mailMalade].prenomMalade = _prenomMalade;\n        Malade_Struct[_mailMalade].sexeMalade = _sexeMalade;\n        Malade_Struct[_mailMalade].addressMalade = _addressMalade;\n        Malade_Struct[_mailMalade].telephoneMalade = _telephoneMalade;\n        Malade_Struct[_mailMalade].mailMalade = _mailMalade;\n        Malade_Struct[_mailMalade].passwordMalade = _passwordMalade;\n        Malade_Struct[_mailMalade].createurMalade = _createur;\n\n        Access[nombreMalade].mailMalade = _mailMalade;\n        Access[nombreMalade].Personnes_on_accees.push(_createur);\n\n        listMalade.push(nombreMalade);\n    }\n\n\n\n     function AddNewAcces(string memory _mailMalade,address adFonctionnaire) public{\n        block_Malade storage tmp = Malade_Struct[_mailMalade];\n\n       Access[tmp.idMalade].Personnes_on_accees.push(adFonctionnaire);\n    }\n\n    function getPersonneOntAcces(string memory _mailMalade) public view returns (address[] memory){\n\n       block_Malade storage tmp = Malade_Struct[_mailMalade];\n\n       liste_access_chaque_Malade storage tmpAccess = Access[tmp.idMalade];\n\n        return tmpAccess.Personnes_on_accees;\n    }\n\n\n    //////////************Recuperer la liste des malades qui peut le personnel x l'accde  ************\\\\\\\\\\\\\\\\\\\\\n\n    function getIdMaladeWhoPersonnelHaveAccess(address addressPersonnel) public view returns (string[] memory)\n    {\n        liste_access_chaque_Malade memory tmp;\n        string[] memory  idByAddress;\n\n       for(uint256 i = 0 ; i < nombreMalade ; i++)\n       {\n           tmp = Access[i];\n           for(uint256 j = 0 ; j < tmp.Personnes_on_accees.length ; j++)\n           {\n           if(tmp.Personnes_on_accees[j] == addressPersonnel){\n                 idByAddress[idByAddress.length+1] = tmp.mailMalade;\n           }\n           }\n       }\n\n        return idByAddress;\n    }\n\n\n    function getNombreMalade() public view returns (uint256 ) {\n        return nombreMalade;\n    }\n\n    function getAllid() public view returns (uint256[] memory) {\n        return listMalade;\n    }\n\n    /////////////////////************NOM ************\\\\\\\\\\\\\\\\\\\\\\\\\\\\\\\\\\\\\\\\\\\\\\\\\n\n    function getNomMalade(string memory  _mailMalade)\n        public\n        view\n        returns (string memory)\n    {\n        block_Malade storage tmp = Malade_Struct[_mailMalade];\n        return tmp.nomMalade;\n    }\n\n    function setNomMalade(string memory _mailMalade,string memory newNom)\n        public\n        returns (string memory)\n    {\n        Malade_Struct[_mailMalade].nomMalade = newNom;\n        block_Malade storage tmp = Malade_Struct[_mailMalade];\n\n        return tmp.nomMalade;\n    }\n    /////////////////////////************PRENOM ************\\\\\\\\\\\\\\\\\\\\\\\\\\\\\\\\\\\\\\\\\\\\\\\\\n\n    function getPrenomMalade(string memory _mailMalade)\n        public\n        view\n        returns (string memory)\n    {\n        block_Malade storage tmp = Malade_Struct[_mailMalade];\n        return tmp.prenomMalade;\n    }\n\n\n    function setPrenomMalade(string memory _mailMalade,string memory newPrenom)\n        public\n        returns (string memory)\n    {\n        Malade_Struct[_mailMalade].prenomMalade = newPrenom;\n\n        block_Malade storage tmp = Malade_Struct[_mailMalade];\n        return tmp.prenomMalade;\n    }\n\n    ////////////////////************TELEPHONE ************\\\\\\\\\\\\\\\\\\\\\\\\\\\\\\\\\\\\\\\\\\\\\\\\\\\\\\\n\n    function getTelephoneMalade(string memory _mailMalade)\n        public\n        view\n        returns (uint256)\n    {\n        block_Malade storage tmp = Malade_Struct[_mailMalade];\n        return tmp.telephoneMalade;\n    }\n\n\n    function setTelephoneMalade(string memory _mailMalade,uint256 newTel)\n        public\n        returns (uint256)\n    {\n        Malade_Struct[_mailMalade].telephoneMalade = newTel;\n\n        block_Malade storage tmp = Malade_Struct[_mailMalade];\n        return tmp.telephoneMalade;\n    }\n\n    /////////////////////************ADDRESS ************\\\\\\\\\\\\\\\\\\\\\\\\\\\\\\\\\\\\\\\\\\\\\\\\\\\\\n\n     function getAddressMalade(string memory _mailMalade)\n        public\n        view\n        returns (string memory)\n    {\n        block_Malade storage tmp = Malade_Struct[_mailMalade];\n        return tmp.addressMalade;\n    }\n\n    function setAddressMalade(string memory _mailMalade,string memory newAddress)\n        public\n        returns (string memory)\n    {\n        Malade_Struct[_mailMalade].addressMalade = newAddress;\n\n        block_Malade storage tmp = Malade_Struct[_mailMalade];\n        return tmp.addressMalade;\n    }\n\n    ///////////////////////************EMAIL ************\\\\\\\\\\\\\\\\\\\\\\\\\\\\\\\\\\\\\\\\\\\\\\\\\\\n\n    function getMailMalade(string memory _mailMalade)\n        public\n        view\n        returns (string memory)\n    {\n        block_Malade storage tmp = Malade_Struct[_mailMalade];\n        return tmp.mailMalade;\n    }\n\n\n    function setMailMalade(string memory _mailMalade,string memory newMail)\n        public\n        returns (string memory)\n    {\n\n        Malade_Struct[_mailMalade].mailMalade = newMail;\n\n        block_Malade storage tmp = Malade_Struct[_mailMalade];\n        return tmp.mailMalade;\n    }\n\n\n    //////////////////////************PASSWORD ************\\\\\\\\\\\\\\\\\\\\\\\\\\\\\\\\\\\\\\\\\\\\\\\\\\\\\n\n     function getPasswordMalade(string memory _mailMalade)\n        public\n        view\n        returns (string memory)\n    {\n        block_Malade storage tmp = Malade_Struct[_mailMalade];\n        return tmp.passwordMalade;\n    }\n\n    function setPasswordMalade(string memory _mailMalade,string memory newPassword)\n        public\n        returns (string memory)\n    {\n\n        Malade_Struct[_mailMalade].passwordMalade = newPassword;\n\n        block_Malade storage tmp = Malade_Struct[_mailMalade];\n        return tmp.passwordMalade;\n    }\n}\n",
  "sourcePath": "/home/unknown/memoire1.1/Esante/contracts/Malade.sol",
  "compiler": {
    "name": "solc",
    "version": "0.5.16+commit.9c3226ce.Emscripten.clang"
  },
  "schemaVersion": "3.2.1",
  "updatedAt": "2020-07-06T19:00:50.816Z",
  "networkType": "ethereum",
  "devdoc": {
    "methods": {}
  },
  "userdoc": {
    "methods": {
      "getAddressMalade(string)": {
        "notice": "//////////////////************ADDRESS ************\\\\\\\\\\\\\\\\\\\\\\\\\\\\\\\\\\\\\\\\\\\\\\\\\\\\"
      },
      "getIdMaladeWhoPersonnelHaveAccess(address)": {
        "notice": "///////************Recuperer la liste des malades qui peut le personnel x l'accde  ************\\\\\\\\\\\\\\\\\\\\"
      },
      "getMailMalade(string)": {
        "notice": "////////////////////************EMAIL ************\\\\\\\\\\\\\\\\\\\\\\\\\\\\\\\\\\\\\\\\\\\\\\\\\\"
      },
      "getNomMalade(string)": {
        "notice": "//////////////////************NOM ************\\\\\\\\\\\\\\\\\\\\\\\\\\\\\\\\\\\\\\\\\\\\\\\\"
      },
      "getPasswordMalade(string)": {
        "notice": "///////////////////************PASSWORD ************\\\\\\\\\\\\\\\\\\\\\\\\\\\\\\\\\\\\\\\\\\\\\\\\\\\\"
      },
      "getPrenomMalade(string)": {
        "notice": "//////////////////////************PRENOM ************\\\\\\\\\\\\\\\\\\\\\\\\\\\\\\\\\\\\\\\\\\\\\\\\"
      },
      "getTelephoneMalade(string)": {
        "notice": "/////////////////************TELEPHONE ************\\\\\\\\\\\\\\\\\\\\\\\\\\\\\\\\\\\\\\\\\\\\\\\\\\\\\\"
      }
    }
  }
}