{
  "contractName": "Malade",
  "abi": [
    {
      "constant": true,
      "inputs": [
        {
          "internalType": "uint256",
          "name": "",
          "type": "uint256"
        }
      ],
      "name": "listMalade",
      "outputs": [
        {
          "internalType": "uint256",
          "name": "",
          "type": "uint256"
        }
      ],
      "payable": false,
      "stateMutability": "view",
      "type": "function"
    },
    {
      "constant": true,
      "inputs": [],
      "name": "nombreMalade",
      "outputs": [
        {
          "internalType": "uint256",
          "name": "",
          "type": "uint256"
        }
      ],
      "payable": false,
      "stateMutability": "view",
      "type": "function"
    },
    {
      "constant": false,
      "inputs": [
        {
          "internalType": "string",
          "name": "_nomMalade",
          "type": "string"
        },
        {
          "internalType": "string",
          "name": "_prenomMalade",
          "type": "string"
        },
        {
          "internalType": "string",
          "name": "_addressMalade",
          "type": "string"
        },
        {
          "internalType": "uint256",
          "name": "_telephoneMalade",
          "type": "uint256"
        },
        {
          "internalType": "string",
          "name": "_mailMalade",
          "type": "string"
        },
        {
          "internalType": "string",
          "name": "_passwordMalade",
          "type": "string"
        }
      ],
      "name": "setNewMalade",
      "outputs": [],
      "payable": false,
      "stateMutability": "nonpayable",
      "type": "function"
    },
    {
      "constant": false,
      "inputs": [
        {
          "internalType": "uint256",
          "name": "idPersonnel",
          "type": "uint256"
        },
        {
          "internalType": "address",
          "name": "adFonctionnaire",
          "type": "address"
        }
      ],
      "name": "AddNewAcces",
      "outputs": [],
      "payable": false,
      "stateMutability": "nonpayable",
      "type": "function"
    },
    {
      "constant": true,
      "inputs": [
        {
          "internalType": "uint256",
          "name": "idPersonnel",
          "type": "uint256"
        }
      ],
      "name": "getPersonneOnAcces",
      "outputs": [
        {
          "internalType": "address[]",
          "name": "",
          "type": "address[]"
        }
      ],
      "payable": false,
      "stateMutability": "view",
      "type": "function"
    },
    {
      "constant": true,
      "inputs": [
        {
          "internalType": "address",
          "name": "addressPersonnel",
          "type": "address"
        }
      ],
      "name": "getIdMaladeWhoPersonnelHaveAccess",
      "outputs": [
        {
          "internalType": "uint256[]",
          "name": "",
          "type": "uint256[]"
        }
      ],
      "payable": false,
      "stateMutability": "view",
      "type": "function"
    },
    {
      "constant": true,
      "inputs": [],
      "name": "getNombreMalade",
      "outputs": [
        {
          "internalType": "uint256",
          "name": "",
          "type": "uint256"
        }
      ],
      "payable": false,
      "stateMutability": "view",
      "type": "function"
    },
    {
      "constant": true,
      "inputs": [],
      "name": "getAllid",
      "outputs": [
        {
          "internalType": "uint256[]",
          "name": "",
          "type": "uint256[]"
        }
      ],
      "payable": false,
      "stateMutability": "view",
      "type": "function"
    },
    {
      "constant": true,
      "inputs": [
        {
          "internalType": "uint256",
          "name": "idPersonnel",
          "type": "uint256"
        }
      ],
      "name": "getNomMalade",
      "outputs": [
        {
          "internalType": "string",
          "name": "",
          "type": "string"
        }
      ],
      "payable": false,
      "stateMutability": "view",
      "type": "function"
    },
    {
      "constant": true,
      "inputs": [
        {
          "internalType": "uint256",
          "name": "idPersonnel",
          "type": "uint256"
        }
      ],
      "name": "getPrenomMalade",
      "outputs": [
        {
          "internalType": "string",
          "name": "",
          "type": "string"
        }
      ],
      "payable": false,
      "stateMutability": "view",
      "type": "function"
    },
    {
      "constant": true,
      "inputs": [
        {
          "internalType": "uint256",
          "name": "idPersonnel",
          "type": "uint256"
        }
      ],
      "name": "getTelephoneMalade",
      "outputs": [
        {
          "internalType": "uint256",
          "name": "",
          "type": "uint256"
        }
      ],
      "payable": false,
      "stateMutability": "view",
      "type": "function"
    },
    {
      "constant": true,
      "inputs": [
        {
          "internalType": "uint256",
          "name": "idPersonnel",
          "type": "uint256"
        }
      ],
      "name": "getAddressMalade",
      "outputs": [
        {
          "internalType": "string",
          "name": "",
          "type": "string"
        }
      ],
      "payable": false,
      "stateMutability": "view",
      "type": "function"
    },
    {
      "constant": true,
      "inputs": [
        {
          "internalType": "uint256",
          "name": "idPersonnel",
          "type": "uint256"
        }
      ],
      "name": "getMailMalade",
      "outputs": [
        {
          "internalType": "string",
          "name": "",
          "type": "string"
        }
      ],
      "payable": false,
      "stateMutability": "view",
      "type": "function"
    },
    {
      "constant": true,
      "inputs": [
        {
          "internalType": "uint256",
          "name": "idPersonnel",
          "type": "uint256"
        }
      ],
      "name": "getPasswordMalade",
      "outputs": [
        {
          "internalType": "string",
          "name": "",
          "type": "string"
        }
      ],
      "payable": false,
      "stateMutability": "view",
      "type": "function"
    }
  ],
  "bytecode": "0x608060405234801561001057600080fd5b50611702806100206000396000f3fe608060405234801561001057600080fd5b50600436106100ea5760003560e01c8063788890a91161008c5780638b99f324116100665780638b99f3241461063d5780638da075bc1461065b578063ac51408d1461069d578063d52cccf4146109be576100ea565b8063788890a9146104c557806384e1e67d14610513578063893cef5a146105ba576100ea565b80633736f880116100c85780633736f8801461027f5780633d9ac214146102de5780635e52eab3146103855780636566fa3b1461042c576100ea565b8063057d67b0146100ef578063121ff2351461019657806331598921146101d8575b600080fd5b61011b6004803603602081101561010557600080fd5b81019080803590602001909291905050506109dc565b6040518080602001828103825283818151815260200191508051906020019080838360005b8381101561015b578082015181840152602081019050610140565b50505050905090810190601f1680156101885780820380516001836020036101000a031916815260200191505b509250505060405180910390f35b6101c2600480360360208110156101ac57600080fd5b8101908080359060200190929190505050610a99565b6040518082815260200191505060405180910390f35b610204600480360360208110156101ee57600080fd5b8101908080359060200190929190505050610abd565b6040518080602001828103825283818151815260200191508051906020019080838360005b83811015610244578082015181840152602081019050610229565b50505050905090810190601f1680156102715780820380516001836020036101000a031916815260200191505b509250505060405180910390f35b610287610b7a565b6040518080602001828103825283818151815260200191508051906020019060200280838360005b838110156102ca5780820151818401526020810190506102af565b505050509050019250505060405180910390f35b61030a600480360360208110156102f457600080fd5b8101908080359060200190929190505050610bd2565b6040518080602001828103825283818151815260200191508051906020019080838360005b8381101561034a57808201518184015260208101905061032f565b50505050905090810190601f1680156103775780820380516001836020036101000a031916815260200191505b509250505060405180910390f35b6103b16004803603602081101561039b57600080fd5b8101908080359060200190929190505050610c8f565b6040518080602001828103825283818151815260200191508051906020019080838360005b838110156103f15780820151818401526020810190506103d6565b50505050905090810190601f16801561041e5780820380516001836020036101000a031916815260200191505b509250505060405180910390f35b61046e6004803603602081101561044257600080fd5b81019080803573ffffffffffffffffffffffffffffffffffffffff169060200190929190505050610d4c565b6040518080602001828103825283818151815260200191508051906020019060200280838360005b838110156104b1578082015181840152602081019050610496565b505050509050019250505060405180910390f35b610511600480360360408110156104db57600080fd5b8101908080359060200190929190803573ffffffffffffffffffffffffffffffffffffffff1690602001909291905050506111fa565b005b61053f6004803603602081101561052957600080fd5b8101908080359060200190929190505050611277565b6040518080602001828103825283818151815260200191508051906020019080838360005b8381101561057f578082015181840152602081019050610564565b50505050905090810190601f1680156105ac5780820380516001836020036101000a031916815260200191505b509250505060405180910390f35b6105e6600480360360208110156105d057600080fd5b8101908080359060200190929190505050611334565b6040518080602001828103825283818151815260200191508051906020019060200280838360005b8381101561062957808201518184015260208101905061060e565b505050509050019250505060405180910390f35b6106456113dd565b6040518082815260200191505060405180910390f35b6106876004803603602081101561067157600080fd5b81019080803590602001909291905050506113e7565b6040518082815260200191505060405180910390f35b6109bc600480360360c08110156106b357600080fd5b81019080803590602001906401000000008111156106d057600080fd5b8201836020820111156106e257600080fd5b8035906020019184600183028401116401000000008311171561070457600080fd5b91908080601f016020809104026020016040519081016040528093929190818152602001838380828437600081840152601f19601f8201169050808301925050505050505091929192908035906020019064010000000081111561076757600080fd5b82018360208201111561077957600080fd5b8035906020019184600183028401116401000000008311171561079b57600080fd5b91908080601f016020809104026020016040519081016040528093929190818152602001838380828437600081840152601f19601f820116905080830192505050505050509192919290803590602001906401000000008111156107fe57600080fd5b82018360208201111561081057600080fd5b8035906020019184600183028401116401000000008311171561083257600080fd5b91908080601f016020809104026020016040519081016040528093929190818152602001838380828437600081840152601f19601f820116905080830192505050505050509192919290803590602001909291908035906020019064010000000081111561089f57600080fd5b8201836020820111156108b157600080fd5b803590602001918460018302840111640100000000831117156108d357600080fd5b91908080601f016020809104026020016040519081016040528093929190818152602001838380828437600081840152601f19601f8201169050808301925050505050505091929192908035906020019064010000000081111561093657600080fd5b82018360208201111561094857600080fd5b8035906020019184600183028401116401000000008311171561096a57600080fd5b91908080601f016020809104026020016040519081016040528093929190818152602001838380828437600081840152601f19601f820116905080830192505050505050509192919290505050611408565b005b6109c66115dd565b6040518082815260200191505060405180910390f35b606060008060008481526020019081526020016000209050806005018054600181600116156101000203166002900480601f016020809104026020016040519081016040528092919081815260200182805460018160011615610100020316600290048015610a8c5780601f10610a6157610100808354040283529160200191610a8c565b820191906000526020600020905b815481529060010190602001808311610a6f57829003601f168201915b5050505050915050919050565b60008060008084815260200190815260200160002090508060010154915050919050565b606060008060008481526020019081526020016000209050806003018054600181600116156101000203166002900480601f016020809104026020016040519081016040528092919081815260200182805460018160011615610100020316600290048015610b6d5780601f10610b4257610100808354040283529160200191610b6d565b820191906000526020600020905b815481529060010190602001808311610b5057829003601f168201915b5050505050915050919050565b60606001805480602002602001604051908101604052809291908181526020018280548015610bc857602002820191906000526020600020905b815481526020019060010190808311610bb4575b5050505050905090565b606060008060008481526020019081526020016000209050806006018054600181600116156101000203166002900480601f016020809104026020016040519081016040528092919081815260200182805460018160011615610100020316600290048015610c825780601f10610c5757610100808354040283529160200191610c82565b820191906000526020600020905b815481529060010190602001808311610c6557829003601f168201915b5050505050915050919050565b606060008060008481526020019081526020016000209050806002018054600181600116156101000203166002900480601f016020809104026020016040519081016040528092919081815260200182805460018160011615610100020316600290048015610d3f5780601f10610d1457610100808354040283529160200191610d3f565b820191906000526020600020905b815481529060010190602001808311610d2257829003601f168201915b5050505050915050919050565b6060610d566115e3565b606060008090505b6002548110156111ef57600080828152602001908152602001600020604051806101000160405290816000820154815260200160018201548152602001600282018054600181600116156101000203166002900480601f016020809104026020016040519081016040528092919081815260200182805460018160011615610100020316600290048015610e335780601f10610e0857610100808354040283529160200191610e33565b820191906000526020600020905b815481529060010190602001808311610e1657829003601f168201915b50505050508152602001600382018054600181600116156101000203166002900480601f016020809104026020016040519081016040528092919081815260200182805460018160011615610100020316600290048015610ed55780601f10610eaa57610100808354040283529160200191610ed5565b820191906000526020600020905b815481529060010190602001808311610eb857829003601f168201915b50505050508152602001600482018054600181600116156101000203166002900480601f016020809104026020016040519081016040528092919081815260200182805460018160011615610100020316600290048015610f775780601f10610f4c57610100808354040283529160200191610f77565b820191906000526020600020905b815481529060010190602001808311610f5a57829003601f168201915b50505050508152602001600582018054600181600116156101000203166002900480601f0160208091040260200160405190810160405280929190818152602001828054600181600116156101000203166002900480156110195780601f10610fee57610100808354040283529160200191611019565b820191906000526020600020905b815481529060010190602001808311610ffc57829003601f168201915b50505050508152602001600682018054600181600116156101000203166002900480601f0160208091040260200160405190810160405280929190818152602001828054600181600116156101000203166002900480156110bb5780601f10611090576101008083540402835291602001916110bb565b820191906000526020600020905b81548152906001019060200180831161109e57829003601f168201915b505050505081526020016007820180548060200260200160405190810160405280929190818152602001828054801561114957602002820191906000526020600020905b8160009054906101000a900473ffffffffffffffffffffffffffffffffffffffff1673ffffffffffffffffffffffffffffffffffffffff16815260200190600101908083116110ff575b505050505081525050925060008090505b8360e00151518110156111e1578573ffffffffffffffffffffffffffffffffffffffff168460e00151828151811061118e57fe5b602002602001015173ffffffffffffffffffffffffffffffffffffffff1614156111d4578360000151836001855101815181106111c757fe5b6020026020010181815250505b808060010191505061115a565b508080600101915050610d5e565b508092505050919050565b6000808381526020019081526020016000206007018190806001815401808255809150509060018203906000526020600020016000909192909190916101000a81548173ffffffffffffffffffffffffffffffffffffffff021916908373ffffffffffffffffffffffffffffffffffffffff160217905550505050565b606060008060008481526020019081526020016000209050806004018054600181600116156101000203166002900480601f0160208091040260200160405190810160405280929190818152602001828054600181600116156101000203166002900480156113275780601f106112fc57610100808354040283529160200191611327565b820191906000526020600020905b81548152906001019060200180831161130a57829003601f168201915b5050505050915050919050565b606060008060008481526020019081526020016000209050806007018054806020026020016040519081016040528092919081815260200182805480156113d057602002820191906000526020600020905b8160009054906101000a900473ffffffffffffffffffffffffffffffffffffffff1673ffffffffffffffffffffffffffffffffffffffff1681526020019060010190808311611386575b5050505050915050919050565b6000600254905090565b600181815481106113f457fe5b906000526020600020016000915090505481565b6001808054905001600281905550600254600080600254815260200190815260200160002060000181905550856000806002548152602001908152602001600020600201908051906020019061145f929190611628565b50846000806002548152602001908152602001600020600301908051906020019061148b929190611628565b5083600080600254815260200190815260200160002060040190805190602001906114b7929190611628565b508260008060025481526020019081526020016000206001018190555081600080600254815260200190815260200160002060050190805190602001906114ff929190611628565b50806000806002548152602001908152602001600020600601908051906020019061152b929190611628565b5060008060025481526020019081526020016000206007013390806001815401808255809150509060018203906000526020600020016000909192909190916101000a81548173ffffffffffffffffffffffffffffffffffffffff021916908373ffffffffffffffffffffffffffffffffffffffff1602179055505060016002549080600181540180825580915050906001820390600052602060002001600090919290919091505550505050505050565b60025481565b60405180610100016040528060008152602001600081526020016060815260200160608152602001606081526020016060815260200160608152602001606081525090565b828054600181600116156101000203166002900490600052602060002090601f016020900481019282601f1061166957805160ff1916838001178555611697565b82800160010185558215611697579182015b8281111561169657825182559160200191906001019061167b565b5b5090506116a491906116a8565b5090565b6116ca91905b808211156116c65760008160009055506001016116ae565b5090565b9056fea265627a7a72315820c0aa05ce36b2d6b18a588c1a2cfb8db36dc7313e270e20184e32256f409b1e7064736f6c63430005100032",
  "source": "\n\n// SPDX-License-Identifier: MIT\n\npragma solidity >=0.4.21 <0.7.0;\n\n\ncontract Malade {\n\n    struct block_Malade {\n        uint256 idMalade;\n        uint256 telephoneMalade;\n        string nomMalade;\n        string prenomMalade;\n        string addressMalade;\n        string mailMalade;\n        string passwordMalade;\n        address[] Personnes_on_accees;\n\n    }\n\n\n\n    mapping(uint256 => block_Malade) Malade_Struct;\n\n    uint256[] public listMalade;\n    uint256 public nombreMalade;\n\n\n    function setNewMalade(\n        string memory _nomMalade,\n        string memory _prenomMalade,\n        string memory _addressMalade,\n        uint256 _telephoneMalade,\n        string memory _mailMalade,\n        string memory _passwordMalade\n    ) public {\n\n        nombreMalade = listMalade.length + 1;\n\n        Malade_Struct[nombreMalade].idMalade = nombreMalade;\n\n        Malade_Struct[nombreMalade].nomMalade = _nomMalade;\n        Malade_Struct[nombreMalade].prenomMalade = _prenomMalade;\n        Malade_Struct[nombreMalade].addressMalade = _addressMalade;\n        Malade_Struct[nombreMalade].telephoneMalade = _telephoneMalade;\n        Malade_Struct[nombreMalade].mailMalade = _mailMalade;\n        Malade_Struct[nombreMalade].passwordMalade = _passwordMalade;\n        Malade_Struct[nombreMalade].Personnes_on_accees.push(msg.sender);\n        listMalade.push(nombreMalade);\n    }\n\n\n\n     function AddNewAcces(uint256 idPersonnel,address adFonctionnaire) public{\n\n       Malade_Struct[idPersonnel].Personnes_on_accees.push(adFonctionnaire);\n    }\n\n    function getPersonneOnAcces(uint256 idPersonnel) public view returns (address[] memory){\n\n       block_Malade storage tmp = Malade_Struct[idPersonnel];\n        return tmp.Personnes_on_accees;\n    }\n\n    function getIdMaladeWhoPersonnelHaveAccess(address addressPersonnel) public view returns (uint256[] memory)\n    {\n        block_Malade memory tmp;\n        uint256[] memory  idByAddress;\n       for(uint256 i = 0 ; i < nombreMalade ; i++)\n       {\n           tmp = Malade_Struct[i];\n           for(uint256 j = 0 ; j < tmp.Personnes_on_accees.length ; j++)\n           {\n           if(tmp.Personnes_on_accees[j] == addressPersonnel){\n                 idByAddress[idByAddress.length+1] = tmp.idMalade;\n           }\n           }\n       }\n\n        return idByAddress;\n    }\n\n\n    function getNombreMalade() public view returns (uint256 ) {\n        return nombreMalade;\n    }\n\n    function getAllid() public view returns (uint256[] memory) {\n        return listMalade;\n    }\n\n\n    function getNomMalade(uint256 idPersonnel)\n        public\n        view\n        returns (string memory)\n    {\n        block_Malade storage tmp = Malade_Struct[idPersonnel];\n        return tmp.nomMalade;\n    }\n\n    function getPrenomMalade(uint256 idPersonnel)\n        public\n        view\n        returns (string memory)\n    {\n        block_Malade storage tmp = Malade_Struct[idPersonnel];\n        return tmp.prenomMalade;\n    }\n\n\n    function getTelephoneMalade(uint256 idPersonnel)\n        public\n        view\n        returns (uint256)\n    {\n        block_Malade storage tmp = Malade_Struct[idPersonnel];\n        return tmp.telephoneMalade;\n    }\n\n     function getAddressMalade(uint256 idPersonnel)\n        public\n        view\n        returns (string memory)\n    {\n        block_Malade storage tmp = Malade_Struct[idPersonnel];\n        return tmp.addressMalade;\n    }\n\n\n    function getMailMalade(uint256 idPersonnel)\n        public\n        view\n        returns (string memory)\n    {\n        block_Malade storage tmp = Malade_Struct[idPersonnel];\n        return tmp.mailMalade;\n    }\n\n     function getPasswordMalade(uint256 idPersonnel)\n        public\n        view\n        returns (string memory)\n    {\n        block_Malade storage tmp = Malade_Struct[idPersonnel];\n        return tmp.passwordMalade;\n    }\n}\n",
  "sourcePath": "/home/unknown/Esante/contracts/Malade.sol",
  "compiler": {
    "name": "solc",
    "version": "0.5.16+commit.9c3226ce.Emscripten.clang"
  },
  "schemaVersion": "3.1.0",
  "updatedAt": "2020-07-01T10:47:16.882Z",
  "networkType": "ethereum",
  "devdoc": {
    "methods": {}
  },
  "userdoc": {
    "methods": {}
  }
}