{
  "contractName": "PersonnelSante",
  "abi": [
    {
      "constant": true,
      "inputs": [
        {
          "internalType": "uint256",
          "name": "",
          "type": "uint256"
        }
      ],
      "name": "listPersonnel",
      "outputs": [
        {
          "internalType": "uint256",
          "name": "",
          "type": "uint256"
        }
      ],
      "payable": false,
      "stateMutability": "view",
      "type": "function"
    },
    {
      "constant": true,
      "inputs": [],
      "name": "nombrePersonnels",
      "outputs": [
        {
          "internalType": "uint256",
          "name": "",
          "type": "uint256"
        }
      ],
      "payable": false,
      "stateMutability": "view",
      "type": "function"
    },
    {
      "constant": false,
      "inputs": [
        {
          "internalType": "string",
          "name": "_roleFonctionnaire",
          "type": "string"
        },
        {
          "internalType": "string",
          "name": "_nomFonctionnaire",
          "type": "string"
        },
        {
          "internalType": "string",
          "name": "_prenomFonctionnaire",
          "type": "string"
        },
        {
          "internalType": "string",
          "name": "_addressFonctionnaire",
          "type": "string"
        },
        {
          "internalType": "string",
          "name": "_mailFonctionnaire",
          "type": "string"
        },
        {
          "internalType": "string",
          "name": "_passwordFonctionnaire",
          "type": "string"
        },
        {
          "internalType": "uint256",
          "name": "_telephoneFonctionnaire",
          "type": "uint256"
        },
        {
          "internalType": "address",
          "name": "_createurFonctionnaire",
          "type": "address"
        }
      ],
      "name": "setNewFonctionnaire",
      "outputs": [],
      "payable": false,
      "stateMutability": "nonpayable",
      "type": "function"
    },
    {
      "constant": true,
      "inputs": [],
      "name": "getNombrePersonnels",
      "outputs": [
        {
          "internalType": "uint256",
          "name": "",
          "type": "uint256"
        }
      ],
      "payable": false,
      "stateMutability": "view",
      "type": "function"
    },
    {
      "constant": true,
      "inputs": [],
      "name": "getAllid",
      "outputs": [
        {
          "internalType": "uint256[]",
          "name": "",
          "type": "uint256[]"
        }
      ],
      "payable": false,
      "stateMutability": "view",
      "type": "function"
    },
    {
      "constant": true,
      "inputs": [
        {
          "internalType": "uint256",
          "name": "idPersonnel",
          "type": "uint256"
        }
      ],
      "name": "getRoleFonctionnaire",
      "outputs": [
        {
          "internalType": "string",
          "name": "",
          "type": "string"
        }
      ],
      "payable": false,
      "stateMutability": "view",
      "type": "function"
    },
    {
      "constant": true,
      "inputs": [
        {
          "internalType": "uint256",
          "name": "idPersonnel",
          "type": "uint256"
        }
      ],
      "name": "getNomFonctionnaire",
      "outputs": [
        {
          "internalType": "string",
          "name": "",
          "type": "string"
        }
      ],
      "payable": false,
      "stateMutability": "view",
      "type": "function"
    },
    {
      "constant": true,
      "inputs": [
        {
          "internalType": "uint256",
          "name": "idPersonnel",
          "type": "uint256"
        }
      ],
      "name": "getPrenomFonctionnaire",
      "outputs": [
        {
          "internalType": "string",
          "name": "",
          "type": "string"
        }
      ],
      "payable": false,
      "stateMutability": "view",
      "type": "function"
    },
    {
      "constant": true,
      "inputs": [
        {
          "internalType": "uint256",
          "name": "idPersonnel",
          "type": "uint256"
        }
      ],
      "name": "getTelephoneFonctionnaire",
      "outputs": [
        {
          "internalType": "uint256",
          "name": "",
          "type": "uint256"
        }
      ],
      "payable": false,
      "stateMutability": "view",
      "type": "function"
    },
    {
      "constant": true,
      "inputs": [
        {
          "internalType": "uint256",
          "name": "idPersonnel",
          "type": "uint256"
        }
      ],
      "name": "getAddressFonctionnaire",
      "outputs": [
        {
          "internalType": "string",
          "name": "",
          "type": "string"
        }
      ],
      "payable": false,
      "stateMutability": "view",
      "type": "function"
    },
    {
      "constant": true,
      "inputs": [
        {
          "internalType": "uint256",
          "name": "idPersonnel",
          "type": "uint256"
        }
      ],
      "name": "getMailFonctionnaire",
      "outputs": [
        {
          "internalType": "string",
          "name": "",
          "type": "string"
        }
      ],
      "payable": false,
      "stateMutability": "view",
      "type": "function"
    },
    {
      "constant": true,
      "inputs": [
        {
          "internalType": "uint256",
          "name": "idPersonnel",
          "type": "uint256"
        }
      ],
      "name": "getPasswordFonctionnaire",
      "outputs": [
        {
          "internalType": "string",
          "name": "",
          "type": "string"
        }
      ],
      "payable": false,
      "stateMutability": "view",
      "type": "function"
    },
    {
      "constant": true,
      "inputs": [
        {
          "internalType": "uint256",
          "name": "idPersonnel",
          "type": "uint256"
        }
      ],
      "name": "getCreateurFonctionnaire",
      "outputs": [
        {
          "internalType": "address",
          "name": "",
          "type": "address"
        }
      ],
      "payable": false,
      "stateMutability": "view",
      "type": "function"
    }
  ],
  "bytecode": "0x608060405234801561001057600080fd5b5061123b806100206000396000f3fe608060405234801561001057600080fd5b50600436106100cf5760003560e01c806364cd02091161008c5780639b97c653116100665780639b97c65314610826578063cbb1d6b6146108cd578063cf8f45471461090f578063dbb8007f146109b6576100cf565b806364cd0209146106965780636d09de771461073d578063957f8339146107e4576100cf565b806304d97d59146100d4578063154217d8146104ad5780633736f8801461055457806352dc7eb6146105b35780635683bb52146105d1578063572ff0c714610678575b600080fd5b6104ab60048036036101008110156100eb57600080fd5b810190808035906020019064010000000081111561010857600080fd5b82018360208201111561011a57600080fd5b8035906020019184600183028401116401000000008311171561013c57600080fd5b91908080601f016020809104026020016040519081016040528093929190818152602001838380828437600081840152601f19601f8201169050808301925050505050505091929192908035906020019064010000000081111561019f57600080fd5b8201836020820111156101b157600080fd5b803590602001918460018302840111640100000000831117156101d357600080fd5b91908080601f016020809104026020016040519081016040528093929190818152602001838380828437600081840152601f19601f8201169050808301925050505050505091929192908035906020019064010000000081111561023657600080fd5b82018360208201111561024857600080fd5b8035906020019184600183028401116401000000008311171561026a57600080fd5b91908080601f016020809104026020016040519081016040528093929190818152602001838380828437600081840152601f19601f820116905080830192505050505050509192919290803590602001906401000000008111156102cd57600080fd5b8201836020820111156102df57600080fd5b8035906020019184600183028401116401000000008311171561030157600080fd5b91908080601f016020809104026020016040519081016040528093929190818152602001838380828437600081840152601f19601f8201169050808301925050505050505091929192908035906020019064010000000081111561036457600080fd5b82018360208201111561037657600080fd5b8035906020019184600183028401116401000000008311171561039857600080fd5b91908080601f016020809104026020016040519081016040528093929190818152602001838380828437600081840152601f19601f820116905080830192505050505050509192919290803590602001906401000000008111156103fb57600080fd5b82018360208201111561040d57600080fd5b8035906020019184600183028401116401000000008311171561042f57600080fd5b91908080601f016020809104026020016040519081016040528093929190818152602001838380828437600081840152601f19601f82011690508083019250505050505050919291929080359060200190929190803573ffffffffffffffffffffffffffffffffffffffff169060200190929190505050610a24565b005b6104d9600480360360208110156104c357600080fd5b8101908080359060200190929190505050610c02565b6040518080602001828103825283818151815260200191508051906020019080838360005b838110156105195780820151818401526020810190506104fe565b50505050905090810190601f1680156105465780820380516001836020036101000a031916815260200191505b509250505060405180910390f35b61055c610cbf565b6040518080602001828103825283818151815260200191508051906020019060200280838360005b8381101561059f578082015181840152602081019050610584565b505050509050019250505060405180910390f35b6105bb610d17565b6040518082815260200191505060405180910390f35b6105fd600480360360208110156105e757600080fd5b8101908080359060200190929190505050610d1d565b6040518080602001828103825283818151815260200191508051906020019080838360005b8381101561063d578082015181840152602081019050610622565b50505050905090810190601f16801561066a5780820380516001836020036101000a031916815260200191505b509250505060405180910390f35b610680610dda565b6040518082815260200191505060405180910390f35b6106c2600480360360208110156106ac57600080fd5b8101908080359060200190929190505050610de4565b6040518080602001828103825283818151815260200191508051906020019080838360005b838110156107025780820151818401526020810190506106e7565b50505050905090810190601f16801561072f5780820380516001836020036101000a031916815260200191505b509250505060405180910390f35b6107696004803603602081101561075357600080fd5b8101908080359060200190929190505050610ea1565b6040518080602001828103825283818151815260200191508051906020019080838360005b838110156107a957808201518184015260208101905061078e565b50505050905090810190601f1680156107d65780820380516001836020036101000a031916815260200191505b509250505060405180910390f35b610810600480360360208110156107fa57600080fd5b8101908080359060200190929190505050610f5e565b6040518082815260200191505060405180910390f35b6108526004803603602081101561083c57600080fd5b8101908080359060200190929190505050610f82565b6040518080602001828103825283818151815260200191508051906020019080838360005b83811015610892578082015181840152602081019050610877565b50505050905090810190601f1680156108bf5780820380516001836020036101000a031916815260200191505b509250505060405180910390f35b6108f9600480360360208110156108e357600080fd5b810190808035906020019092919050505061103f565b6040518082815260200191505060405180910390f35b61093b6004803603602081101561092557600080fd5b8101908080359060200190929190505050611060565b6040518080602001828103825283818151815260200191508051906020019080838360005b8381101561097b578082015181840152602081019050610960565b50505050905090810190601f1680156109a85780820380516001836020036101000a031916815260200191505b509250505060405180910390f35b6109e2600480360360208110156109cc57600080fd5b810190808035906020019092919050505061111d565b604051808273ffffffffffffffffffffffffffffffffffffffff1673ffffffffffffffffffffffffffffffffffffffff16815260200191505060405180910390f35b60018080549050016002819055506002546000806002548152602001908152602001600020600001819055508760008060025481526020019081526020016000206002019080519060200190610a7b929190611161565b508660008060025481526020019081526020016000206003019080519060200190610aa7929190611161565b508560008060025481526020019081526020016000206004019080519060200190610ad3929190611161565b508460008060025481526020019081526020016000206005019080519060200190610aff929190611161565b50816000806002548152602001908152602001600020600101819055508360008060025481526020019081526020016000206006019080519060200190610b47929190611161565b508260008060025481526020019081526020016000206007019080519060200190610b73929190611161565b5080600080600254815260200190815260200160002060080160006101000a81548173ffffffffffffffffffffffffffffffffffffffff021916908373ffffffffffffffffffffffffffffffffffffffff160217905550600160025490806001815401808255809150509060018203906000526020600020016000909192909190915055505050505050505050565b606060008060008481526020019081526020016000209050806003018054600181600116156101000203166002900480601f016020809104026020016040519081016040528092919081815260200182805460018160011615610100020316600290048015610cb25780601f10610c8757610100808354040283529160200191610cb2565b820191906000526020600020905b815481529060010190602001808311610c9557829003601f168201915b5050505050915050919050565b60606001805480602002602001604051908101604052809291908181526020018280548015610d0d57602002820191906000526020600020905b815481526020019060010190808311610cf9575b5050505050905090565b60025481565b606060008060008481526020019081526020016000209050806006018054600181600116156101000203166002900480601f016020809104026020016040519081016040528092919081815260200182805460018160011615610100020316600290048015610dcd5780601f10610da257610100808354040283529160200191610dcd565b820191906000526020600020905b815481529060010190602001808311610db057829003601f168201915b5050505050915050919050565b6000600254905090565b606060008060008481526020019081526020016000209050806005018054600181600116156101000203166002900480601f016020809104026020016040519081016040528092919081815260200182805460018160011615610100020316600290048015610e945780601f10610e6957610100808354040283529160200191610e94565b820191906000526020600020905b815481529060010190602001808311610e7757829003601f168201915b5050505050915050919050565b606060008060008481526020019081526020016000209050806002018054600181600116156101000203166002900480601f016020809104026020016040519081016040528092919081815260200182805460018160011615610100020316600290048015610f515780601f10610f2657610100808354040283529160200191610f51565b820191906000526020600020905b815481529060010190602001808311610f3457829003601f168201915b5050505050915050919050565b60008060008084815260200190815260200160002090508060010154915050919050565b606060008060008481526020019081526020016000209050806007018054600181600116156101000203166002900480601f0160208091040260200160405190810160405280929190818152602001828054600181600116156101000203166002900480156110325780601f1061100757610100808354040283529160200191611032565b820191906000526020600020905b81548152906001019060200180831161101557829003601f168201915b5050505050915050919050565b6001818154811061104c57fe5b906000526020600020016000915090505481565b606060008060008481526020019081526020016000209050806004018054600181600116156101000203166002900480601f0160208091040260200160405190810160405280929190818152602001828054600181600116156101000203166002900480156111105780601f106110e557610100808354040283529160200191611110565b820191906000526020600020905b8154815290600101906020018083116110f357829003601f168201915b5050505050915050919050565b60008060008084815260200190815260200160002090508060080160009054906101000a900473ffffffffffffffffffffffffffffffffffffffff16915050919050565b828054600181600116156101000203166002900490600052602060002090601f016020900481019282601f106111a257805160ff19168380011785556111d0565b828001600101855582156111d0579182015b828111156111cf5782518255916020019190600101906111b4565b5b5090506111dd91906111e1565b5090565b61120391905b808211156111ff5760008160009055506001016111e7565b5090565b9056fea265627a7a7231582035f954f70380570a6e3e023c773f802f1fcd20aaa3c36dabcb51a95ca2e4b56f64736f6c63430005100032",
  "source": "\n\n// SPDX-License-Identifier: MIT\n\npragma solidity >=0.4.21 <0.7.0;\n\n\ncontract PersonnelSante {\n\n    struct Fonctionnaire {\n        uint256 idFonctionnaire;\n        uint256 telephoneFonctionnaire;\n        string roleFonctionnaire;\n        string nomFonctionnaire;\n        string prenomFonctionnaire;\n        string addressFonctionnaire;\n        string mailFonctionnaire;\n        string passwordFonctionnaire;\n        address createurFonctionnaire;\n    }\n\n\n\n    mapping(uint256 => Fonctionnaire) Fonctionnaire_Struct;\n\n    uint256[] public listPersonnel;\n\n    uint256 public nombrePersonnels;\n\n\n    function setNewFonctionnaire(\n        string memory _roleFonctionnaire,\n        string memory _nomFonctionnaire,\n        string memory _prenomFonctionnaire,\n        string memory _addressFonctionnaire,\n        string memory _mailFonctionnaire,\n        string memory _passwordFonctionnaire,\n        uint _telephoneFonctionnaire,\n        address _createurFonctionnaire\n    ) public {\n\n        nombrePersonnels = listPersonnel.length + 1;\n\n        Fonctionnaire_Struct[nombrePersonnels].idFonctionnaire = nombrePersonnels;\n        Fonctionnaire_Struct[nombrePersonnels].roleFonctionnaire = _roleFonctionnaire;\n        Fonctionnaire_Struct[nombrePersonnels].nomFonctionnaire = _nomFonctionnaire;\n        Fonctionnaire_Struct[nombrePersonnels].prenomFonctionnaire = _prenomFonctionnaire;\n        Fonctionnaire_Struct[nombrePersonnels].addressFonctionnaire = _addressFonctionnaire;\n        Fonctionnaire_Struct[nombrePersonnels].telephoneFonctionnaire = _telephoneFonctionnaire;\n        Fonctionnaire_Struct[nombrePersonnels].mailFonctionnaire = _mailFonctionnaire;\n        Fonctionnaire_Struct[nombrePersonnels].passwordFonctionnaire = _passwordFonctionnaire;\n        Fonctionnaire_Struct[nombrePersonnels].createurFonctionnaire = _createurFonctionnaire;\n        listPersonnel.push(nombrePersonnels);\n    }\n\n\n    function getNombrePersonnels() public view returns (uint256 ) {\n        return nombrePersonnels;\n    }\n\n    function getAllid() public view returns (uint256[] memory) {\n        return listPersonnel;\n    }\n\n\n    function getRoleFonctionnaire(uint256  idPersonnel)\n        public\n        view\n        returns (string memory)\n    {\n        Fonctionnaire storage tmp = Fonctionnaire_Struct[idPersonnel];\n        return tmp.roleFonctionnaire;\n    }\n\n\n    function getNomFonctionnaire(uint256 idPersonnel)\n        public\n        view\n        returns (string memory)\n    {\n        Fonctionnaire storage tmp = Fonctionnaire_Struct[idPersonnel];\n        return tmp.nomFonctionnaire;\n    }\n\n\n    function getPrenomFonctionnaire(uint256 idPersonnel)\n        public\n        view\n        returns (string memory)\n    {\n        Fonctionnaire storage tmp = Fonctionnaire_Struct[idPersonnel];\n        return tmp.prenomFonctionnaire;\n    }\n\n\n\n    function getTelephoneFonctionnaire(uint256 idPersonnel)\n        public\n        view\n        returns (uint256)\n    {\n        Fonctionnaire storage tmp = Fonctionnaire_Struct[idPersonnel];\n        return tmp.telephoneFonctionnaire;\n    }\n\n\n    function getAddressFonctionnaire(uint256 idPersonnel)\n        public\n        view\n        returns (string memory)\n    {\n        Fonctionnaire storage tmp = Fonctionnaire_Struct[idPersonnel];\n        return tmp.addressFonctionnaire;\n    }\n\n    function getMailFonctionnaire(uint256 idPersonnel)\n        public\n        view\n        returns (string memory)\n    {\n        Fonctionnaire storage tmp = Fonctionnaire_Struct[idPersonnel];\n        return tmp.mailFonctionnaire;\n    }\n\n     function getPasswordFonctionnaire(uint256 idPersonnel)\n        public\n        view\n        returns (string memory)\n    {\n        Fonctionnaire storage tmp = Fonctionnaire_Struct[idPersonnel];\n        return tmp.passwordFonctionnaire;\n    }\n\n    function getCreateurFonctionnaire(uint256  idPersonnel) public view returns (address )\n     {\n        Fonctionnaire storage tmp = Fonctionnaire_Struct[idPersonnel];\n        return tmp.createurFonctionnaire;\n    }\n}\n",
  "sourcePath": "/home/unknown/Esante/contracts/PersonnelSante.sol",
  "compiler": {
    "name": "solc",
    "version": "0.5.16+commit.9c3226ce.Emscripten.clang"
  },
  "schemaVersion": "3.1.0",
  "updatedAt": "2020-07-01T10:47:16.464Z",
  "networkType": "ethereum",
  "devdoc": {
    "methods": {}
  },
  "userdoc": {
    "methods": {}
  }
}