{
  "contractName": "PersonnelSante",
  "abi": [
    {
      "constant": true,
      "inputs": [
        {
          "internalType": "uint256",
          "name": "",
          "type": "uint256"
        }
      ],
      "name": "listPersonnel",
      "outputs": [
        {
          "internalType": "uint256",
          "name": "",
          "type": "uint256"
        }
      ],
      "payable": false,
      "stateMutability": "view",
      "type": "function"
    },
    {
      "constant": true,
      "inputs": [],
      "name": "nombrePersonnels",
      "outputs": [
        {
          "internalType": "uint256",
          "name": "",
          "type": "uint256"
        }
      ],
      "payable": false,
      "stateMutability": "view",
      "type": "function"
    },
    {
      "constant": false,
      "inputs": [
        {
          "internalType": "uint256",
          "name": "_idFonctionnaire",
          "type": "uint256"
        },
        {
          "internalType": "string",
          "name": "_roleFonctionnaire",
          "type": "string"
        },
        {
          "internalType": "string",
          "name": "_nomFonctionnaire",
          "type": "string"
        },
        {
          "internalType": "string",
          "name": "_prenomFonctionnaire",
          "type": "string"
        },
        {
          "internalType": "string",
          "name": "_addressFonctionnaire",
          "type": "string"
        },
        {
          "internalType": "string",
          "name": "_mailFonctionnaire",
          "type": "string"
        },
        {
          "internalType": "string",
          "name": "_passwordFonctionnaire",
          "type": "string"
        },
        {
          "internalType": "uint256",
          "name": "_telephoneFonctionnaire",
          "type": "uint256"
        },
        {
          "internalType": "address",
          "name": "_createurFonctionnaire",
          "type": "address"
        }
      ],
      "name": "setNewFonctionnaire",
      "outputs": [],
      "payable": false,
      "stateMutability": "nonpayable",
      "type": "function"
    },
    {
      "constant": true,
      "inputs": [],
      "name": "getNombrePersonnels",
      "outputs": [
        {
          "internalType": "uint256",
          "name": "",
          "type": "uint256"
        }
      ],
      "payable": false,
      "stateMutability": "view",
      "type": "function"
    },
    {
      "constant": true,
      "inputs": [],
      "name": "getAllid",
      "outputs": [
        {
          "internalType": "uint256[]",
          "name": "",
          "type": "uint256[]"
        }
      ],
      "payable": false,
      "stateMutability": "view",
      "type": "function"
    },
    {
      "constant": true,
      "inputs": [
        {
          "internalType": "uint256",
          "name": "idPersonnel",
          "type": "uint256"
        }
      ],
      "name": "getRoleFonctionnaire",
      "outputs": [
        {
          "internalType": "string",
          "name": "",
          "type": "string"
        }
      ],
      "payable": false,
      "stateMutability": "view",
      "type": "function"
    },
    {
      "constant": false,
      "inputs": [
        {
          "internalType": "uint256",
          "name": "idPersonnel",
          "type": "uint256"
        },
        {
          "internalType": "string",
          "name": "_roleFonctionnaire",
          "type": "string"
        }
      ],
      "name": "setRoleFonctionnaire",
      "outputs": [
        {
          "internalType": "string",
          "name": "",
          "type": "string"
        }
      ],
      "payable": false,
      "stateMutability": "nonpayable",
      "type": "function"
    },
    {
      "constant": true,
      "inputs": [
        {
          "internalType": "uint256",
          "name": "idPersonnel",
          "type": "uint256"
        }
      ],
      "name": "getNomFonctionnaire",
      "outputs": [
        {
          "internalType": "string",
          "name": "",
          "type": "string"
        }
      ],
      "payable": false,
      "stateMutability": "view",
      "type": "function"
    },
    {
      "constant": false,
      "inputs": [
        {
          "internalType": "uint256",
          "name": "idPersonnel",
          "type": "uint256"
        },
        {
          "internalType": "string",
          "name": "_nomFonctionnaire",
          "type": "string"
        }
      ],
      "name": "setNomFonctionnaire",
      "outputs": [
        {
          "internalType": "string",
          "name": "",
          "type": "string"
        }
      ],
      "payable": false,
      "stateMutability": "nonpayable",
      "type": "function"
    },
    {
      "constant": true,
      "inputs": [
        {
          "internalType": "uint256",
          "name": "idPersonnel",
          "type": "uint256"
        }
      ],
      "name": "getPrenomFonctionnaire",
      "outputs": [
        {
          "internalType": "string",
          "name": "",
          "type": "string"
        }
      ],
      "payable": false,
      "stateMutability": "view",
      "type": "function"
    },
    {
      "constant": false,
      "inputs": [
        {
          "internalType": "uint256",
          "name": "idPersonnel",
          "type": "uint256"
        },
        {
          "internalType": "string",
          "name": "_prenomFonctionnaire",
          "type": "string"
        }
      ],
      "name": "setPrenomFonctionnaire",
      "outputs": [
        {
          "internalType": "string",
          "name": "",
          "type": "string"
        }
      ],
      "payable": false,
      "stateMutability": "nonpayable",
      "type": "function"
    },
    {
      "constant": true,
      "inputs": [
        {
          "internalType": "uint256",
          "name": "idPersonnel",
          "type": "uint256"
        }
      ],
      "name": "getTelephoneFonctionnaire",
      "outputs": [
        {
          "internalType": "uint256",
          "name": "",
          "type": "uint256"
        }
      ],
      "payable": false,
      "stateMutability": "view",
      "type": "function"
    },
    {
      "constant": false,
      "inputs": [
        {
          "internalType": "uint256",
          "name": "idPersonnel",
          "type": "uint256"
        },
        {
          "internalType": "uint256",
          "name": "_telephoneFonctionnaire",
          "type": "uint256"
        }
      ],
      "name": "SetTelephoneFonctionnaire",
      "outputs": [
        {
          "internalType": "uint256",
          "name": "",
          "type": "uint256"
        }
      ],
      "payable": false,
      "stateMutability": "nonpayable",
      "type": "function"
    },
    {
      "constant": true,
      "inputs": [
        {
          "internalType": "uint256",
          "name": "idPersonnel",
          "type": "uint256"
        }
      ],
      "name": "getAddressFonctionnaire",
      "outputs": [
        {
          "internalType": "string",
          "name": "",
          "type": "string"
        }
      ],
      "payable": false,
      "stateMutability": "view",
      "type": "function"
    },
    {
      "constant": false,
      "inputs": [
        {
          "internalType": "uint256",
          "name": "idPersonnel",
          "type": "uint256"
        },
        {
          "internalType": "string",
          "name": "_addressFonctionnaire",
          "type": "string"
        }
      ],
      "name": "setAddressFonctionnaire",
      "outputs": [
        {
          "internalType": "string",
          "name": "",
          "type": "string"
        }
      ],
      "payable": false,
      "stateMutability": "nonpayable",
      "type": "function"
    },
    {
      "constant": true,
      "inputs": [
        {
          "internalType": "uint256",
          "name": "idPersonnel",
          "type": "uint256"
        }
      ],
      "name": "getMailFonctionnaire",
      "outputs": [
        {
          "internalType": "string",
          "name": "",
          "type": "string"
        }
      ],
      "payable": false,
      "stateMutability": "view",
      "type": "function"
    },
    {
      "constant": false,
      "inputs": [
        {
          "internalType": "uint256",
          "name": "idPersonnel",
          "type": "uint256"
        },
        {
          "internalType": "string",
          "name": "_mailFonctionnaire",
          "type": "string"
        }
      ],
      "name": "setMailFonctionnaire",
      "outputs": [
        {
          "internalType": "string",
          "name": "",
          "type": "string"
        }
      ],
      "payable": false,
      "stateMutability": "nonpayable",
      "type": "function"
    },
    {
      "constant": true,
      "inputs": [
        {
          "internalType": "uint256",
          "name": "idPersonnel",
          "type": "uint256"
        }
      ],
      "name": "getPasswordFonctionnaire",
      "outputs": [
        {
          "internalType": "string",
          "name": "",
          "type": "string"
        }
      ],
      "payable": false,
      "stateMutability": "view",
      "type": "function"
    },
    {
      "constant": false,
      "inputs": [
        {
          "internalType": "uint256",
          "name": "idPersonnel",
          "type": "uint256"
        },
        {
          "internalType": "string",
          "name": "_passwordFonctionnaire",
          "type": "string"
        }
      ],
      "name": "setPasswordFonctionnaire",
      "outputs": [
        {
          "internalType": "string",
          "name": "",
          "type": "string"
        }
      ],
      "payable": false,
      "stateMutability": "nonpayable",
      "type": "function"
    },
    {
      "constant": true,
      "inputs": [
        {
          "internalType": "uint256",
          "name": "idPersonnel",
          "type": "uint256"
        }
      ],
      "name": "getCreateurFonnctionnaire",
      "outputs": [
        {
          "internalType": "address",
          "name": "",
          "type": "address"
        }
      ],
      "payable": false,
      "stateMutability": "view",
      "type": "function"
    }
  ],
  "bytecode": "0x608060405234801561001057600080fd5b50611ffd806100206000396000f3fe608060405234801561001057600080fd5b506004361061012c5760003560e01c80639431138f116100ad578063cf8f454711610071578063cf8f454714610cac578063d1e03f3c14610d53578063d49916a414610e91578063e36c336614610fcf578063f48040561461110d5761012c565b80639431138f14610660578063957f833914610a435780639a476a3f14610a855780639b97c65314610bc3578063cbb1d6b614610c6a5761012c565b806352dc7eb6116100f457806352dc7eb61461042f5780635683bb521461044d578063572ff0c7146104f457806364cd0209146105125780636d09de77146105b95761012c565b8063154217d814610131578063366eae94146101d85780633736f880146102245780633a3bc33d146102835780634aee6c2b146102f1575b600080fd5b61015d6004803603602081101561014757600080fd5b810190808035906020019092919050505061124b565b6040518080602001828103825283818151815260200191508051906020019080838360005b8381101561019d578082015181840152602081019050610182565b50505050905090810190601f1680156101ca5780820380516001836020036101000a031916815260200191505b509250505060405180910390f35b61020e600480360360408110156101ee57600080fd5b810190808035906020019092919080359060200190929190505050611308565b6040518082815260200191505060405180910390f35b61022c611348565b6040518080602001828103825283818151815260200191508051906020019060200280838360005b8381101561026f578082015181840152602081019050610254565b505050509050019250505060405180910390f35b6102af6004803603602081101561029957600080fd5b81019080803590602001909291905050506113a0565b604051808273ffffffffffffffffffffffffffffffffffffffff1673ffffffffffffffffffffffffffffffffffffffff16815260200191505060405180910390f35b6103b46004803603604081101561030757600080fd5b81019080803590602001909291908035906020019064010000000081111561032e57600080fd5b82018360208201111561034057600080fd5b8035906020019184600183028401116401000000008311171561036257600080fd5b91908080601f016020809104026020016040519081016040528093929190818152602001838380828437600081840152601f19601f8201169050808301925050505050505091929192905050506113e4565b6040518080602001828103825283818151815260200191508051906020019080838360005b838110156103f45780820151818401526020810190506103d9565b50505050905090810190601f1680156104215780820380516001836020036101000a031916815260200191505b509250505060405180910390f35b6104376114cc565b6040518082815260200191505060405180910390f35b6104796004803603602081101561046357600080fd5b81019080803590602001909291905050506114d2565b6040518080602001828103825283818151815260200191508051906020019080838360005b838110156104b957808201518184015260208101905061049e565b50505050905090810190601f1680156104e65780820380516001836020036101000a031916815260200191505b509250505060405180910390f35b6104fc61158f565b6040518082815260200191505060405180910390f35b61053e6004803603602081101561052857600080fd5b8101908080359060200190929190505050611599565b6040518080602001828103825283818151815260200191508051906020019080838360005b8381101561057e578082015181840152602081019050610563565b50505050905090810190601f1680156105ab5780820380516001836020036101000a031916815260200191505b509250505060405180910390f35b6105e5600480360360208110156105cf57600080fd5b8101908080359060200190929190505050611656565b6040518080602001828103825283818151815260200191508051906020019080838360005b8381101561062557808201518184015260208101905061060a565b50505050905090810190601f1680156106525780820380516001836020036101000a031916815260200191505b509250505060405180910390f35b610a41600480360361012081101561067757600080fd5b81019080803590602001909291908035906020019064010000000081111561069e57600080fd5b8201836020820111156106b057600080fd5b803590602001918460018302840111640100000000831117156106d257600080fd5b91908080601f016020809104026020016040519081016040528093929190818152602001838380828437600081840152601f19601f8201169050808301925050505050505091929192908035906020019064010000000081111561073557600080fd5b82018360208201111561074757600080fd5b8035906020019184600183028401116401000000008311171561076957600080fd5b91908080601f016020809104026020016040519081016040528093929190818152602001838380828437600081840152601f19601f820116905080830192505050505050509192919290803590602001906401000000008111156107cc57600080fd5b8201836020820111156107de57600080fd5b8035906020019184600183028401116401000000008311171561080057600080fd5b91908080601f016020809104026020016040519081016040528093929190818152602001838380828437600081840152601f19601f8201169050808301925050505050505091929192908035906020019064010000000081111561086357600080fd5b82018360208201111561087557600080fd5b8035906020019184600183028401116401000000008311171561089757600080fd5b91908080601f016020809104026020016040519081016040528093929190818152602001838380828437600081840152601f19601f820116905080830192505050505050509192919290803590602001906401000000008111156108fa57600080fd5b82018360208201111561090c57600080fd5b8035906020019184600183028401116401000000008311171561092e57600080fd5b91908080601f016020809104026020016040519081016040528093929190818152602001838380828437600081840152601f19601f8201169050808301925050505050505091929192908035906020019064010000000081111561099157600080fd5b8201836020820111156109a357600080fd5b803590602001918460018302840111640100000000831117156109c557600080fd5b91908080601f016020809104026020016040519081016040528093929190818152602001838380828437600081840152601f19601f82011690508083019250505050505050919291929080359060200190929190803573ffffffffffffffffffffffffffffffffffffffff169060200190929190505050611713565b005b610a6f60048036036020811015610a5957600080fd5b81019080803590602001909291905050506118dc565b6040518082815260200191505060405180910390f35b610b4860048036036040811015610a9b57600080fd5b810190808035906020019092919080359060200190640100000000811115610ac257600080fd5b820183602082011115610ad457600080fd5b80359060200191846001830284011164010000000083111715610af657600080fd5b91908080601f016020809104026020016040519081016040528093929190818152602001838380828437600081840152601f19601f820116905080830192505050505050509192919290505050611900565b6040518080602001828103825283818151815260200191508051906020019080838360005b83811015610b88578082015181840152602081019050610b6d565b50505050905090810190601f168015610bb55780820380516001836020036101000a031916815260200191505b509250505060405180910390f35b610bef60048036036020811015610bd957600080fd5b81019080803590602001909291905050506119e8565b6040518080602001828103825283818151815260200191508051906020019080838360005b83811015610c2f578082015181840152602081019050610c14565b50505050905090810190601f168015610c5c5780820380516001836020036101000a031916815260200191505b509250505060405180910390f35b610c9660048036036020811015610c8057600080fd5b8101908080359060200190929190505050611aa5565b6040518082815260200191505060405180910390f35b610cd860048036036020811015610cc257600080fd5b8101908080359060200190929190505050611ac6565b6040518080602001828103825283818151815260200191508051906020019080838360005b83811015610d18578082015181840152602081019050610cfd565b50505050905090810190601f168015610d455780820380516001836020036101000a031916815260200191505b509250505060405180910390f35b610e1660048036036040811015610d6957600080fd5b810190808035906020019092919080359060200190640100000000811115610d9057600080fd5b820183602082011115610da257600080fd5b80359060200191846001830284011164010000000083111715610dc457600080fd5b91908080601f016020809104026020016040519081016040528093929190818152602001838380828437600081840152601f19601f820116905080830192505050505050509192919290505050611b83565b6040518080602001828103825283818151815260200191508051906020019080838360005b83811015610e56578082015181840152602081019050610e3b565b50505050905090810190601f168015610e835780820380516001836020036101000a031916815260200191505b509250505060405180910390f35b610f5460048036036040811015610ea757600080fd5b810190808035906020019092919080359060200190640100000000811115610ece57600080fd5b820183602082011115610ee057600080fd5b80359060200191846001830284011164010000000083111715610f0257600080fd5b91908080601f016020809104026020016040519081016040528093929190818152602001838380828437600081840152601f19601f820116905080830192505050505050509192919290505050611c6b565b6040518080602001828103825283818151815260200191508051906020019080838360005b83811015610f94578082015181840152602081019050610f79565b50505050905090810190601f168015610fc15780820380516001836020036101000a031916815260200191505b509250505060405180910390f35b61109260048036036040811015610fe557600080fd5b81019080803590602001909291908035906020019064010000000081111561100c57600080fd5b82018360208201111561101e57600080fd5b8035906020019184600183028401116401000000008311171561104057600080fd5b91908080601f016020809104026020016040519081016040528093929190818152602001838380828437600081840152601f19601f820116905080830192505050505050509192919290505050611d53565b6040518080602001828103825283818151815260200191508051906020019080838360005b838110156110d25780820151818401526020810190506110b7565b50505050905090810190601f1680156110ff5780820380516001836020036101000a031916815260200191505b509250505060405180910390f35b6111d06004803603604081101561112357600080fd5b81019080803590602001909291908035906020019064010000000081111561114a57600080fd5b82018360208201111561115c57600080fd5b8035906020019184600183028401116401000000008311171561117e57600080fd5b91908080601f016020809104026020016040519081016040528093929190818152602001838380828437600081840152601f19601f820116905080830192505050505050509192919290505050611e3b565b6040518080602001828103825283818151815260200191508051906020019080838360005b838110156112105780820151818401526020810190506111f5565b50505050905090810190601f16801561123d5780820380516001836020036101000a031916815260200191505b509250505060405180910390f35b606060008060008481526020019081526020016000209050806003018054600181600116156101000203166002900480601f0160208091040260200160405190810160405280929190818152602001828054600181600116156101000203166002900480156112fb5780601f106112d0576101008083540402835291602001916112fb565b820191906000526020600020905b8154815290600101906020018083116112de57829003601f168201915b5050505050915050919050565b6000816000808581526020019081526020016000206001018190555060008060008581526020019081526020016000209050806001015491505092915050565b6060600180548060200260200160405190810160405280929190818152602001828054801561139657602002820191906000526020600020905b815481526020019060010190808311611382575b5050505050905090565b60008060008084815260200190815260200160002090508060080160009054906101000a900473ffffffffffffffffffffffffffffffffffffffff16915050919050565b606081600080858152602001908152602001600020600601908051906020019061140f929190611f23565b5060008060008581526020019081526020016000209050806006018054600181600116156101000203166002900480601f0160208091040260200160405190810160405280929190818152602001828054600181600116156101000203166002900480156114be5780601f10611493576101008083540402835291602001916114be565b820191906000526020600020905b8154815290600101906020018083116114a157829003601f168201915b505050505091505092915050565b60025481565b606060008060008481526020019081526020016000209050806006018054600181600116156101000203166002900480601f0160208091040260200160405190810160405280929190818152602001828054600181600116156101000203166002900480156115825780601f1061155757610100808354040283529160200191611582565b820191906000526020600020905b81548152906001019060200180831161156557829003601f168201915b5050505050915050919050565b6000600254905090565b606060008060008481526020019081526020016000209050806005018054600181600116156101000203166002900480601f0160208091040260200160405190810160405280929190818152602001828054600181600116156101000203166002900480156116495780601f1061161e57610100808354040283529160200191611649565b820191906000526020600020905b81548152906001019060200180831161162c57829003601f168201915b5050505050915050919050565b606060008060008481526020019081526020016000209050806002018054600181600116156101000203166002900480601f0160208091040260200160405190810160405280929190818152602001828054600181600116156101000203166002900480156117065780601f106116db57610100808354040283529160200191611706565b820191906000526020600020905b8154815290600101906020018083116116e957829003601f168201915b5050505050915050919050565b886000808b815260200190815260200160002060000181905550876000808b81526020019081526020016000206002019080519060200190611756929190611f23565b50866000808b81526020019081526020016000206003019080519060200190611780929190611f23565b50856000808b815260200190815260200160002060040190805190602001906117aa929190611f23565b50846000808b815260200190815260200160002060050190805190602001906117d4929190611f23565b50816000808b815260200190815260200160002060010181905550836000808b81526020019081526020016000206006019080519060200190611818929190611f23565b50826000808b81526020019081526020016000206007019080519060200190611842929190611f23565b50806000808b815260200190815260200160002060080160006101000a81548173ffffffffffffffffffffffffffffffffffffffff021916908373ffffffffffffffffffffffffffffffffffffffff16021790555060018080549050016002819055506001899080600181540180825580915050906001820390600052602060002001600090919290919091505550505050505050505050565b60008060008084815260200190815260200160002090508060010154915050919050565b606081600080858152602001908152602001600020600201908051906020019061192b929190611f23565b5060008060008581526020019081526020016000209050806002018054600181600116156101000203166002900480601f0160208091040260200160405190810160405280929190818152602001828054600181600116156101000203166002900480156119da5780601f106119af576101008083540402835291602001916119da565b820191906000526020600020905b8154815290600101906020018083116119bd57829003601f168201915b505050505091505092915050565b606060008060008481526020019081526020016000209050806007018054600181600116156101000203166002900480601f016020809104026020016040519081016040528092919081815260200182805460018160011615610100020316600290048015611a985780601f10611a6d57610100808354040283529160200191611a98565b820191906000526020600020905b815481529060010190602001808311611a7b57829003601f168201915b5050505050915050919050565b60018181548110611ab257fe5b906000526020600020016000915090505481565b606060008060008481526020019081526020016000209050806004018054600181600116156101000203166002900480601f016020809104026020016040519081016040528092919081815260200182805460018160011615610100020316600290048015611b765780601f10611b4b57610100808354040283529160200191611b76565b820191906000526020600020905b815481529060010190602001808311611b5957829003601f168201915b5050505050915050919050565b6060816000808581526020019081526020016000206005019080519060200190611bae929190611f23565b5060008060008581526020019081526020016000209050806005018054600181600116156101000203166002900480601f016020809104026020016040519081016040528092919081815260200182805460018160011615610100020316600290048015611c5d5780601f10611c3257610100808354040283529160200191611c5d565b820191906000526020600020905b815481529060010190602001808311611c4057829003601f168201915b505050505091505092915050565b6060816000808581526020019081526020016000206003019080519060200190611c96929190611f23565b5060008060008581526020019081526020016000209050806003018054600181600116156101000203166002900480601f016020809104026020016040519081016040528092919081815260200182805460018160011615610100020316600290048015611d455780601f10611d1a57610100808354040283529160200191611d45565b820191906000526020600020905b815481529060010190602001808311611d2857829003601f168201915b505050505091505092915050565b6060816000808581526020019081526020016000206007019080519060200190611d7e929190611f23565b5060008060008581526020019081526020016000209050806007018054600181600116156101000203166002900480601f016020809104026020016040519081016040528092919081815260200182805460018160011615610100020316600290048015611e2d5780601f10611e0257610100808354040283529160200191611e2d565b820191906000526020600020905b815481529060010190602001808311611e1057829003601f168201915b505050505091505092915050565b6060816000808581526020019081526020016000206004019080519060200190611e66929190611f23565b5060008060008581526020019081526020016000209050806004018054600181600116156101000203166002900480601f016020809104026020016040519081016040528092919081815260200182805460018160011615610100020316600290048015611f155780601f10611eea57610100808354040283529160200191611f15565b820191906000526020600020905b815481529060010190602001808311611ef857829003601f168201915b505050505091505092915050565b828054600181600116156101000203166002900490600052602060002090601f016020900481019282601f10611f6457805160ff1916838001178555611f92565b82800160010185558215611f92579182015b82811115611f91578251825591602001919060010190611f76565b5b509050611f9f9190611fa3565b5090565b611fc591905b80821115611fc1576000816000905550600101611fa9565b5090565b9056fea265627a7a72315820032ef304ccb360dd32a99236effdec436abcae189951c404f4cba470ef737cf464736f6c63430005100032",
  "source": "\n\n// SPDX-License-Identifier: MIT\n\npragma solidity >=0.4.21 <0.7.0;\n\n\ncontract PersonnelSante {\n\n    struct Fonctionnaire {\n        uint256 idFonctionnaire;\n        uint256 telephoneFonctionnaire;\n        string roleFonctionnaire;\n        string nomFonctionnaire;\n        string prenomFonctionnaire;\n        string addressFonctionnaire;\n        string mailFonctionnaire;\n        string passwordFonctionnaire;\n        address createurFonctionnaire;\n    }\n\n\n\n    mapping(uint256 => Fonctionnaire) Fonctionnaire_Struct;\n\n    uint256[] public listPersonnel;\n\n    uint256 public nombrePersonnels;\n\n\n    function setNewFonctionnaire(\n        uint256  _idFonctionnaire,\n        string memory _roleFonctionnaire,\n        string memory _nomFonctionnaire,\n        string memory _prenomFonctionnaire,\n        string memory _addressFonctionnaire,\n        string memory _mailFonctionnaire,\n        string memory _passwordFonctionnaire,\n        uint256 _telephoneFonctionnaire,\n        address _createurFonctionnaire\n    ) public {\n\n        Fonctionnaire_Struct[_idFonctionnaire].idFonctionnaire = _idFonctionnaire;\n        Fonctionnaire_Struct[_idFonctionnaire].roleFonctionnaire = _roleFonctionnaire;\n        Fonctionnaire_Struct[_idFonctionnaire].nomFonctionnaire = _nomFonctionnaire;\n        Fonctionnaire_Struct[_idFonctionnaire].prenomFonctionnaire = _prenomFonctionnaire;\n        Fonctionnaire_Struct[_idFonctionnaire].addressFonctionnaire = _addressFonctionnaire;\n        Fonctionnaire_Struct[_idFonctionnaire].telephoneFonctionnaire = _telephoneFonctionnaire;\n        Fonctionnaire_Struct[_idFonctionnaire].mailFonctionnaire = _mailFonctionnaire;\n        Fonctionnaire_Struct[_idFonctionnaire].passwordFonctionnaire = _passwordFonctionnaire;\n        Fonctionnaire_Struct[_idFonctionnaire].createurFonctionnaire = _createurFonctionnaire;\n\n        nombrePersonnels = listPersonnel.length + 1;\n        listPersonnel.push(_idFonctionnaire);\n    }\n\n\n    function getNombrePersonnels() public view returns (uint256 ) {\n        return nombrePersonnels;\n    }\n\n    function getAllid() public view returns (uint256[] memory) {\n        return listPersonnel;\n    }\n\n            //////////************ROLE ************\\\\\\\\\\\\\\\\\\\\\n    function getRoleFonctionnaire(uint256  idPersonnel)\n        public\n        view\n        returns (string memory)\n    {\n        Fonctionnaire storage tmp = Fonctionnaire_Struct[idPersonnel];\n        return tmp.roleFonctionnaire;\n    }\n\n     function setRoleFonctionnaire(uint256  idPersonnel,string memory _roleFonctionnaire)\n        public\n        returns (string memory)\n    {\n        Fonctionnaire_Struct[idPersonnel].roleFonctionnaire = _roleFonctionnaire;\n        Fonctionnaire storage tmp = Fonctionnaire_Struct[idPersonnel];\n        return tmp.roleFonctionnaire;\n    }\n\n            //////////************NOM ************\\\\\\\\\\\\\\\\\\\\\n\n    function getNomFonctionnaire(uint256 idPersonnel)\n        public\n        view\n        returns (string memory)\n    {\n        Fonctionnaire storage tmp = Fonctionnaire_Struct[idPersonnel];\n        return tmp.nomFonctionnaire;\n    }\n\n     function setNomFonctionnaire(uint256 idPersonnel,string memory _nomFonctionnaire)\n        public\n        returns (string memory)\n    {\n        Fonctionnaire_Struct[idPersonnel].nomFonctionnaire = _nomFonctionnaire;\n\n        Fonctionnaire storage tmp = Fonctionnaire_Struct[idPersonnel];\n        return tmp.nomFonctionnaire;\n    }\n\n\n            //////////************PRENOM ************\\\\\\\\\\\\\\\\\\\\\n    function getPrenomFonctionnaire(uint256 idPersonnel)\n        public\n        view\n        returns (string memory)\n    {\n        Fonctionnaire storage tmp = Fonctionnaire_Struct[idPersonnel];\n        return tmp.prenomFonctionnaire;\n    }\n\n    function setPrenomFonctionnaire(uint256 idPersonnel,string memory _prenomFonctionnaire)\n        public\n        returns (string memory)\n    {\n        Fonctionnaire_Struct[idPersonnel].prenomFonctionnaire = _prenomFonctionnaire;\n\n        Fonctionnaire storage tmp = Fonctionnaire_Struct[idPersonnel];\n        return tmp.prenomFonctionnaire;\n    }\n\n\n            //////////************TELEPHONE ************\\\\\\\\\\\\\\\\\\\\\n\n    function getTelephoneFonctionnaire(uint256 idPersonnel)\n        public\n        view\n        returns (uint256)\n    {\n        Fonctionnaire storage tmp = Fonctionnaire_Struct[idPersonnel];\n        return tmp.telephoneFonctionnaire;\n    }\n\n    function SetTelephoneFonctionnaire(uint256 idPersonnel,uint256 _telephoneFonctionnaire)\n        public\n        returns (uint256)\n    {\n        Fonctionnaire_Struct[idPersonnel].telephoneFonctionnaire = _telephoneFonctionnaire;\n\n        Fonctionnaire storage tmp = Fonctionnaire_Struct[idPersonnel];\n        return tmp.telephoneFonctionnaire;\n    }\n\n            //////////************ADDRESS ************\\\\\\\\\\\\\\\\\\\\\n\n    function getAddressFonctionnaire(uint256 idPersonnel)\n        public\n        view\n        returns (string memory)\n    {\n        Fonctionnaire storage tmp = Fonctionnaire_Struct[idPersonnel];\n        return tmp.addressFonctionnaire;\n    }\n\n\n\n    function setAddressFonctionnaire(uint256 idPersonnel,string memory _addressFonctionnaire)\n        public\n        returns (string memory)\n    {\n        Fonctionnaire_Struct[idPersonnel].addressFonctionnaire = _addressFonctionnaire;\n\n        Fonctionnaire storage tmp = Fonctionnaire_Struct[idPersonnel];\n        return tmp.addressFonctionnaire;\n    }\n\n            //////////************EMAIL ************\\\\\\\\\\\\\\\\\\\\\n\n    function getMailFonctionnaire(uint256 idPersonnel)\n        public\n        view\n        returns (string memory)\n    {\n        Fonctionnaire storage tmp = Fonctionnaire_Struct[idPersonnel];\n        return tmp.mailFonctionnaire;\n    }\n\n    function setMailFonctionnaire(uint256 idPersonnel,string memory _mailFonctionnaire)\n        public\n        returns (string memory)\n    {\n        Fonctionnaire_Struct[idPersonnel].mailFonctionnaire = _mailFonctionnaire;\n\n        Fonctionnaire storage tmp = Fonctionnaire_Struct[idPersonnel];\n        return tmp.mailFonctionnaire;\n    }\n            //////////************PASSWORD ************\\\\\\\\\\\\\\\\\\\\\n\n     function getPasswordFonctionnaire(uint256 idPersonnel)\n        public\n        view\n        returns (string memory)\n    {\n        Fonctionnaire storage tmp = Fonctionnaire_Struct[idPersonnel];\n        return tmp.passwordFonctionnaire;\n    }\n\n    function setPasswordFonctionnaire(uint256 idPersonnel,string memory _passwordFonctionnaire)\n        public\n        returns (string memory)\n    {\n        Fonctionnaire_Struct[idPersonnel].passwordFonctionnaire = _passwordFonctionnaire;\n\n        Fonctionnaire storage tmp = Fonctionnaire_Struct[idPersonnel];\n        return tmp.passwordFonctionnaire;\n    }\n\n            //////////************CREATEUR ************\\\\\\\\\\\\\\\\\\\\\n\n    function getCreateurFonnctionnaire(uint256  idPersonnel) public view returns (address )\n     {\n        Fonctionnaire storage tmp = Fonctionnaire_Struct[idPersonnel];\n        return tmp.createurFonctionnaire;\n    }\n}\n",
  "sourcePath": "/home/unknown/memoire1.1/Esante/contracts/PersonnelSante.sol",
  "compiler": {
    "name": "solc",
    "version": "0.5.16+commit.9c3226ce.Emscripten.clang"
  },
  "schemaVersion": "3.2.1",
  "updatedAt": "2020-07-06T19:00:51.124Z",
  "networkType": "ethereum",
  "devdoc": {
    "methods": {}
  },
  "userdoc": {
    "methods": {
      "getAddressFonctionnaire(uint256)": {
        "notice": "///////************ADDRESS ************\\\\\\\\\\\\\\\\\\\\"
      },
      "getCreateurFonnctionnaire(uint256)": {
        "notice": "///////************CREATEUR ************\\\\\\\\\\\\\\\\\\\\"
      },
      "getMailFonctionnaire(uint256)": {
        "notice": "///////************EMAIL ************\\\\\\\\\\\\\\\\\\\\"
      },
      "getNomFonctionnaire(uint256)": {
        "notice": "///////************NOM ************\\\\\\\\\\\\\\\\\\\\"
      },
      "getPasswordFonctionnaire(uint256)": {
        "notice": "///////************PASSWORD ************\\\\\\\\\\\\\\\\\\\\"
      },
      "getPrenomFonctionnaire(uint256)": {
        "notice": "///////************PRENOM ************\\\\\\\\\\\\\\\\\\\\"
      },
      "getRoleFonctionnaire(uint256)": {
        "notice": "///////************ROLE ************\\\\\\\\\\\\\\\\\\\\"
      },
      "getTelephoneFonctionnaire(uint256)": {
        "notice": "///////************TELEPHONE ************\\\\\\\\\\\\\\\\\\\\"
      }
    }
  }
}