{
  "contractName": "PersonnelSante",
  "abi": [
    {
      "constant": true,
      "inputs": [],
      "name": "currentIdFonctionnaire",
      "outputs": [
        {
          "internalType": "uint256",
          "name": "",
          "type": "uint256"
        }
      ],
      "payable": false,
      "stateMutability": "view",
      "type": "function"
    },
    {
      "constant": true,
      "inputs": [
        {
          "internalType": "uint256",
          "name": "",
          "type": "uint256"
        }
      ],
      "name": "listPersonnel",
      "outputs": [
        {
          "internalType": "uint256",
          "name": "",
          "type": "uint256"
        }
      ],
      "payable": false,
      "stateMutability": "view",
      "type": "function"
    },
    {
      "constant": true,
      "inputs": [],
      "name": "nombrePersonnels",
      "outputs": [
        {
          "internalType": "uint256",
          "name": "",
          "type": "uint256"
        }
      ],
      "payable": false,
      "stateMutability": "view",
      "type": "function"
    },
    {
      "constant": false,
      "inputs": [
        {
          "internalType": "uint256",
          "name": "_idFonctionnaire",
          "type": "uint256"
        },
        {
          "internalType": "string",
          "name": "_roleFonctionnaire",
          "type": "string"
        },
        {
          "internalType": "string",
          "name": "_nomFonctionnaire",
          "type": "string"
        },
        {
          "internalType": "string",
          "name": "_prenomFonctionnaire",
          "type": "string"
        },
        {
          "internalType": "string",
          "name": "_addressFonctionnaire",
          "type": "string"
        },
        {
          "internalType": "string",
          "name": "_mailFonctionnaire",
          "type": "string"
        },
        {
          "internalType": "string",
          "name": "_passwordFonctionnaire",
          "type": "string"
        },
        {
          "internalType": "uint256",
          "name": "_telephoneFonctionnaire",
          "type": "uint256"
        },
        {
          "internalType": "address",
          "name": "_createurFonctionnaire",
          "type": "address"
        }
      ],
      "name": "setNewFonctionnaire",
      "outputs": [],
      "payable": false,
      "stateMutability": "nonpayable",
      "type": "function"
    },
    {
      "constant": true,
      "inputs": [],
      "name": "getNombrePersonnels",
      "outputs": [
        {
          "internalType": "uint256",
          "name": "",
          "type": "uint256"
        }
      ],
      "payable": false,
      "stateMutability": "view",
      "type": "function"
    },
    {
      "constant": true,
      "inputs": [],
      "name": "getAllid",
      "outputs": [
        {
          "internalType": "uint256[]",
          "name": "",
          "type": "uint256[]"
        }
      ],
      "payable": false,
      "stateMutability": "view",
      "type": "function"
    },
    {
      "constant": true,
      "inputs": [
        {
          "internalType": "uint256",
          "name": "idPersonnel",
          "type": "uint256"
        }
      ],
      "name": "getRoleFonctionnaire",
      "outputs": [
        {
          "internalType": "string",
          "name": "",
          "type": "string"
        }
      ],
      "payable": false,
      "stateMutability": "view",
      "type": "function"
    },
    {
      "constant": false,
      "inputs": [
        {
          "internalType": "uint256",
          "name": "idPersonnel",
          "type": "uint256"
        },
        {
          "internalType": "string",
          "name": "_roleFonctionnaire",
          "type": "string"
        }
      ],
      "name": "setRoleFonctionnaire",
      "outputs": [
        {
          "internalType": "string",
          "name": "",
          "type": "string"
        }
      ],
      "payable": false,
      "stateMutability": "nonpayable",
      "type": "function"
    },
    {
      "constant": true,
      "inputs": [
        {
          "internalType": "uint256",
          "name": "idPersonnel",
          "type": "uint256"
        }
      ],
      "name": "getNomFonctionnaire",
      "outputs": [
        {
          "internalType": "string",
          "name": "",
          "type": "string"
        }
      ],
      "payable": false,
      "stateMutability": "view",
      "type": "function"
    },
    {
      "constant": false,
      "inputs": [
        {
          "internalType": "uint256",
          "name": "idPersonnel",
          "type": "uint256"
        },
        {
          "internalType": "string",
          "name": "_nomFonctionnaire",
          "type": "string"
        }
      ],
      "name": "setNomFonctionnaire",
      "outputs": [
        {
          "internalType": "string",
          "name": "",
          "type": "string"
        }
      ],
      "payable": false,
      "stateMutability": "nonpayable",
      "type": "function"
    },
    {
      "constant": true,
      "inputs": [
        {
          "internalType": "uint256",
          "name": "idPersonnel",
          "type": "uint256"
        }
      ],
      "name": "getPrenomFonctionnaire",
      "outputs": [
        {
          "internalType": "string",
          "name": "",
          "type": "string"
        }
      ],
      "payable": false,
      "stateMutability": "view",
      "type": "function"
    },
    {
      "constant": false,
      "inputs": [
        {
          "internalType": "uint256",
          "name": "idPersonnel",
          "type": "uint256"
        },
        {
          "internalType": "string",
          "name": "_prenomFonctionnaire",
          "type": "string"
        }
      ],
      "name": "setPrenomFonctionnaire",
      "outputs": [
        {
          "internalType": "string",
          "name": "",
          "type": "string"
        }
      ],
      "payable": false,
      "stateMutability": "nonpayable",
      "type": "function"
    },
    {
      "constant": true,
      "inputs": [
        {
          "internalType": "uint256",
          "name": "idPersonnel",
          "type": "uint256"
        }
      ],
      "name": "getTelephoneFonctionnaire",
      "outputs": [
        {
          "internalType": "uint256",
          "name": "",
          "type": "uint256"
        }
      ],
      "payable": false,
      "stateMutability": "view",
      "type": "function"
    },
    {
      "constant": false,
      "inputs": [
        {
          "internalType": "uint256",
          "name": "idPersonnel",
          "type": "uint256"
        },
        {
          "internalType": "uint256",
          "name": "_telephoneFonctionnaire",
          "type": "uint256"
        }
      ],
      "name": "SetTelephoneFonctionnaire",
      "outputs": [
        {
          "internalType": "uint256",
          "name": "",
          "type": "uint256"
        }
      ],
      "payable": false,
      "stateMutability": "nonpayable",
      "type": "function"
    },
    {
      "constant": true,
      "inputs": [
        {
          "internalType": "uint256",
          "name": "idPersonnel",
          "type": "uint256"
        }
      ],
      "name": "getAddressFonctionnaire",
      "outputs": [
        {
          "internalType": "string",
          "name": "",
          "type": "string"
        }
      ],
      "payable": false,
      "stateMutability": "view",
      "type": "function"
    },
    {
      "constant": false,
      "inputs": [
        {
          "internalType": "uint256",
          "name": "idPersonnel",
          "type": "uint256"
        },
        {
          "internalType": "string",
          "name": "_addressFonctionnaire",
          "type": "string"
        }
      ],
      "name": "setAddressFonctionnaire",
      "outputs": [
        {
          "internalType": "string",
          "name": "",
          "type": "string"
        }
      ],
      "payable": false,
      "stateMutability": "nonpayable",
      "type": "function"
    },
    {
      "constant": true,
      "inputs": [
        {
          "internalType": "uint256",
          "name": "idPersonnel",
          "type": "uint256"
        }
      ],
      "name": "getMailFonctionnaire",
      "outputs": [
        {
          "internalType": "string",
          "name": "",
          "type": "string"
        }
      ],
      "payable": false,
      "stateMutability": "view",
      "type": "function"
    },
    {
      "constant": false,
      "inputs": [
        {
          "internalType": "uint256",
          "name": "idPersonnel",
          "type": "uint256"
        },
        {
          "internalType": "string",
          "name": "_mailFonctionnaire",
          "type": "string"
        }
      ],
      "name": "setMailFonctionnaire",
      "outputs": [
        {
          "internalType": "string",
          "name": "",
          "type": "string"
        }
      ],
      "payable": false,
      "stateMutability": "nonpayable",
      "type": "function"
    },
    {
      "constant": true,
      "inputs": [
        {
          "internalType": "uint256",
          "name": "idPersonnel",
          "type": "uint256"
        }
      ],
      "name": "getPasswordFonctionnaire",
      "outputs": [
        {
          "internalType": "string",
          "name": "",
          "type": "string"
        }
      ],
      "payable": false,
      "stateMutability": "view",
      "type": "function"
    },
    {
      "constant": false,
      "inputs": [
        {
          "internalType": "uint256",
          "name": "idPersonnel",
          "type": "uint256"
        },
        {
          "internalType": "string",
          "name": "_passwordFonctionnaire",
          "type": "string"
        }
      ],
      "name": "setPasswordFonctionnaire",
      "outputs": [
        {
          "internalType": "string",
          "name": "",
          "type": "string"
        }
      ],
      "payable": false,
      "stateMutability": "nonpayable",
      "type": "function"
    },
    {
      "constant": true,
      "inputs": [
        {
          "internalType": "uint256",
          "name": "idPersonnel",
          "type": "uint256"
        }
      ],
      "name": "getCreateurFonnctionnaire",
      "outputs": [
        {
          "internalType": "address",
          "name": "",
          "type": "address"
        }
      ],
      "payable": false,
      "stateMutability": "view",
      "type": "function"
    }
  ],
  "bytecode": "0x608060405234801561001057600080fd5b50611821806100206000396000f3fe608060405234801561001057600080fd5b50600436106101375760003560e01c80636d09de77116100b8578063cbb1d6b61161007c578063cbb1d6b6146103b0578063cf8f4547146103e0578063d1e03f3c14610410578063d49916a414610440578063e36c336614610470578063f4804056146104a057610137565b80636d09de77146102d45780639431138f14610304578063957f8339146103205780639a476a3f146103505780639b97c6531461038057610137565b806352dc7eb6116100ff57806352dc7eb61461021a5780635683bb5214610238578063572ff0c71461026857806364cd02091461028657806368d1b012146102b657610137565b8063154217d81461013c578063366eae941461016c5780633736f8801461019c5780633a3bc33d146101ba5780634aee6c2b146101ea575b600080fd5b6101566004803603610151919081019061130e565b6104d0565b6040516101639190611636565b60405180910390f35b610186600480360361018191908101906114e1565b61058d565b6040516101939190611658565b60405180910390f35b6101a46105cd565b6040516101b19190611614565b60405180910390f35b6101d460048036036101cf919081019061130e565b610625565b6040516101e191906115f9565b60405180910390f35b61020460048036036101ff9190810190611337565b610669565b6040516102119190611636565b60405180910390f35b610222610751565b60405161022f9190611658565b60405180910390f35b610252600480360361024d919081019061130e565b610757565b60405161025f9190611636565b60405180910390f35b610270610814565b60405161027d9190611658565b60405180910390f35b6102a0600480360361029b919081019061130e565b61081e565b6040516102ad9190611636565b60405180910390f35b6102be6108db565b6040516102cb9190611658565b60405180910390f35b6102ee60048036036102e9919081019061130e565b6108e1565b6040516102fb9190611636565b60405180910390f35b61031e6004803603610319919081019061138b565b61099e565b005b61033a6004803603610335919081019061130e565b610ba4565b6040516103479190611658565b60405180910390f35b61036a60048036036103659190810190611337565b610bc8565b6040516103779190611636565b60405180910390f35b61039a6004803603610395919081019061130e565b610cb0565b6040516103a79190611636565b60405180910390f35b6103ca60048036036103c5919081019061130e565b610d6d565b6040516103d79190611658565b60405180910390f35b6103fa60048036036103f5919081019061130e565b610d8e565b6040516104079190611636565b60405180910390f35b61042a60048036036104259190810190611337565b610e4b565b6040516104379190611636565b60405180910390f35b61045a60048036036104559190810190611337565b610f33565b6040516104679190611636565b60405180910390f35b61048a60048036036104859190810190611337565b61101b565b6040516104979190611636565b60405180910390f35b6104ba60048036036104b59190810190611337565b611103565b6040516104c79190611636565b60405180910390f35b606060008060008481526020019081526020016000209050806003018054600181600116156101000203166002900480601f0160208091040260200160405190810160405280929190818152602001828054600181600116156101000203166002900480156105805780601f1061055557610100808354040283529160200191610580565b820191906000526020600020905b81548152906001019060200180831161056357829003601f168201915b5050505050915050919050565b6000816000808581526020019081526020016000206001018190555060008060008581526020019081526020016000209050806001015491505092915050565b6060600280548060200260200160405190810160405280929190818152602001828054801561061b57602002820191906000526020600020905b815481526020019060010190808311610607575b5050505050905090565b60008060008084815260200190815260200160002090508060080160009054906101000a900473ffffffffffffffffffffffffffffffffffffffff16915050919050565b60608160008085815260200190815260200160002060060190805190602001906106949291906111eb565b5060008060008581526020019081526020016000209050806006018054600181600116156101000203166002900480601f0160208091040260200160405190810160405280929190818152602001828054600181600116156101000203166002900480156107435780601f1061071857610100808354040283529160200191610743565b820191906000526020600020905b81548152906001019060200180831161072657829003601f168201915b505050505091505092915050565b60035481565b606060008060008481526020019081526020016000209050806006018054600181600116156101000203166002900480601f0160208091040260200160405190810160405280929190818152602001828054600181600116156101000203166002900480156108075780601f106107dc57610100808354040283529160200191610807565b820191906000526020600020905b8154815290600101906020018083116107ea57829003601f168201915b5050505050915050919050565b6000600354905090565b606060008060008481526020019081526020016000209050806005018054600181600116156101000203166002900480601f0160208091040260200160405190810160405280929190818152602001828054600181600116156101000203166002900480156108ce5780601f106108a3576101008083540402835291602001916108ce565b820191906000526020600020905b8154815290600101906020018083116108b157829003601f168201915b5050505050915050919050565b60045481565b606060008060008481526020019081526020016000209050806002018054600181600116156101000203166002900480601f0160208091040260200160405190810160405280929190818152602001828054600181600116156101000203166002900480156109915780601f1061096657610100808354040283529160200191610991565b820191906000526020600020905b81548152906001019060200180831161097457829003601f168201915b5050505050915050919050565b600160028054905001600381905550886000808b815260200190815260200160002060000181905550876000808b815260200190815260200160002060020190805190602001906109f09291906111eb565b50866000808b81526020019081526020016000206003019080519060200190610a1a9291906111eb565b50856000808b81526020019081526020016000206004019080519060200190610a449291906111eb565b50846000808b81526020019081526020016000206005019080519060200190610a6e9291906111eb565b50816000808b815260200190815260200160002060010181905550836000808b81526020019081526020016000206006019080519060200190610ab29291906111eb565b50826000808b81526020019081526020016000206007019080519060200190610adc9291906111eb565b50806000808b815260200190815260200160002060080160006101000a81548173ffffffffffffffffffffffffffffffffffffffff021916908373ffffffffffffffffffffffffffffffffffffffff1602179055506003546001600060035481526020019081526020016000206000018190555088600160006003548152602001908152602001600020600101819055506002899080600181540180825580915050906001820390600052602060002001600090919290919091505550505050505050505050565b60008060008084815260200190815260200160002090508060010154915050919050565b6060816000808581526020019081526020016000206002019080519060200190610bf39291906111eb565b5060008060008581526020019081526020016000209050806002018054600181600116156101000203166002900480601f016020809104026020016040519081016040528092919081815260200182805460018160011615610100020316600290048015610ca25780601f10610c7757610100808354040283529160200191610ca2565b820191906000526020600020905b815481529060010190602001808311610c8557829003601f168201915b505050505091505092915050565b606060008060008481526020019081526020016000209050806007018054600181600116156101000203166002900480601f016020809104026020016040519081016040528092919081815260200182805460018160011615610100020316600290048015610d605780601f10610d3557610100808354040283529160200191610d60565b820191906000526020600020905b815481529060010190602001808311610d4357829003601f168201915b5050505050915050919050565b60028181548110610d7a57fe5b906000526020600020016000915090505481565b606060008060008481526020019081526020016000209050806004018054600181600116156101000203166002900480601f016020809104026020016040519081016040528092919081815260200182805460018160011615610100020316600290048015610e3e5780601f10610e1357610100808354040283529160200191610e3e565b820191906000526020600020905b815481529060010190602001808311610e2157829003601f168201915b5050505050915050919050565b6060816000808581526020019081526020016000206005019080519060200190610e769291906111eb565b5060008060008581526020019081526020016000209050806005018054600181600116156101000203166002900480601f016020809104026020016040519081016040528092919081815260200182805460018160011615610100020316600290048015610f255780601f10610efa57610100808354040283529160200191610f25565b820191906000526020600020905b815481529060010190602001808311610f0857829003601f168201915b505050505091505092915050565b6060816000808581526020019081526020016000206003019080519060200190610f5e9291906111eb565b5060008060008581526020019081526020016000209050806003018054600181600116156101000203166002900480601f01602080910402602001604051908101604052809291908181526020018280546001816001161561010002031660029004801561100d5780601f10610fe25761010080835404028352916020019161100d565b820191906000526020600020905b815481529060010190602001808311610ff057829003601f168201915b505050505091505092915050565b60608160008085815260200190815260200160002060070190805190602001906110469291906111eb565b5060008060008581526020019081526020016000209050806007018054600181600116156101000203166002900480601f0160208091040260200160405190810160405280929190818152602001828054600181600116156101000203166002900480156110f55780601f106110ca576101008083540402835291602001916110f5565b820191906000526020600020905b8154815290600101906020018083116110d857829003601f168201915b505050505091505092915050565b606081600080858152602001908152602001600020600401908051906020019061112e9291906111eb565b5060008060008581526020019081526020016000209050806004018054600181600116156101000203166002900480601f0160208091040260200160405190810160405280929190818152602001828054600181600116156101000203166002900480156111dd5780601f106111b2576101008083540402835291602001916111dd565b820191906000526020600020905b8154815290600101906020018083116111c057829003601f168201915b505050505091505092915050565b828054600181600116156101000203166002900490600052602060002090601f016020900481019282601f1061122c57805160ff191683800117855561125a565b8280016001018555821561125a579182015b8281111561125957825182559160200191906001019061123e565b5b509050611267919061126b565b5090565b61128d91905b80821115611289576000816000905550600101611271565b5090565b90565b60008135905061129f816117b0565b92915050565b600082601f8301126112b657600080fd5b81356112c96112c4826116a0565b611673565b915080825260208301602083018583830111156112e557600080fd5b6112f083828461175d565b50505092915050565b600081359050611308816117c7565b92915050565b60006020828403121561132057600080fd5b600061132e848285016112f9565b91505092915050565b6000806040838503121561134a57600080fd5b6000611358858286016112f9565b925050602083013567ffffffffffffffff81111561137557600080fd5b611381858286016112a5565b9150509250929050565b60008060008060008060008060006101208a8c0312156113aa57600080fd5b60006113b88c828d016112f9565b99505060208a013567ffffffffffffffff8111156113d557600080fd5b6113e18c828d016112a5565b98505060408a013567ffffffffffffffff8111156113fe57600080fd5b61140a8c828d016112a5565b97505060608a013567ffffffffffffffff81111561142757600080fd5b6114338c828d016112a5565b96505060808a013567ffffffffffffffff81111561145057600080fd5b61145c8c828d016112a5565b95505060a08a013567ffffffffffffffff81111561147957600080fd5b6114858c828d016112a5565b94505060c08a013567ffffffffffffffff8111156114a257600080fd5b6114ae8c828d016112a5565b93505060e06114bf8c828d016112f9565b9250506101006114d18c828d01611290565b9150509295985092959850929598565b600080604083850312156114f457600080fd5b6000611502858286016112f9565b9250506020611513858286016112f9565b9150509250929050565b600061152983836115db565b60208301905092915050565b61153e81611721565b82525050565b600061154f826116dc565b61155981856116ff565b9350611564836116cc565b8060005b8381101561159557815161157c888261151d565b9750611587836116f2565b925050600181019050611568565b5085935050505092915050565b60006115ad826116e7565b6115b78185611710565b93506115c781856020860161176c565b6115d08161179f565b840191505092915050565b6115e481611753565b82525050565b6115f381611753565b82525050565b600060208201905061160e6000830184611535565b92915050565b6000602082019050818103600083015261162e8184611544565b905092915050565b6000602082019050818103600083015261165081846115a2565b905092915050565b600060208201905061166d60008301846115ea565b92915050565b6000604051905081810181811067ffffffffffffffff8211171561169657600080fd5b8060405250919050565b600067ffffffffffffffff8211156116b757600080fd5b601f19601f8301169050602081019050919050565b6000819050602082019050919050565b600081519050919050565b600081519050919050565b6000602082019050919050565b600082825260208201905092915050565b600082825260208201905092915050565b600061172c82611733565b9050919050565b600073ffffffffffffffffffffffffffffffffffffffff82169050919050565b6000819050919050565b82818337600083830152505050565b60005b8381101561178a57808201518184015260208101905061176f565b83811115611799576000848401525b50505050565b6000601f19601f8301169050919050565b6117b981611721565b81146117c457600080fd5b50565b6117d081611753565b81146117db57600080fd5b5056fea365627a7a72315820810dfa3aca5c1138524af4cbb397d950f608a55e3990ffe63245068028379b826c6578706572696d656e74616cf564736f6c63430005100040",
  "source": "\n\n// SPDX-License-Identifier: MIT\n\npragma solidity >=0.4.21 <0.7.0;\npragma experimental ABIEncoderV2;\n\n\ncontract PersonnelSante {\n\n    struct Fonctionnaire {\n        uint256 idFonctionnaire;\n        uint256 telephoneFonctionnaire;\n        string roleFonctionnaire;\n        string nomFonctionnaire;\n        string prenomFonctionnaire;\n        string addressFonctionnaire;\n        string mailFonctionnaire;\n        string passwordFonctionnaire;\n        address createurFonctionnaire;\n    }\n\n    struct liste_Numero_Fonctionnaire{\n\n    uint256 NumeroFonctionnaire;\n    uint256 idFonctionnaire;\n\n    }\n\n    mapping(uint256 => Fonctionnaire) Fonctionnaire_Struct;\n    mapping(uint256 => liste_Numero_Fonctionnaire) NumFonctionnaire;\n\n    uint256[] public listPersonnel;\n\n    uint256 public nombrePersonnels;\n    uint256 public  currentIdFonctionnaire;\n\n    function setNewFonctionnaire(\n        uint256  _idFonctionnaire,\n        string memory _roleFonctionnaire,\n        string memory _nomFonctionnaire,\n        string memory _prenomFonctionnaire,\n        string memory _addressFonctionnaire,\n        string memory _mailFonctionnaire,\n        string memory _passwordFonctionnaire,\n        uint256 _telephoneFonctionnaire,\n        address _createurFonctionnaire\n    ) public {\n        nombrePersonnels = listPersonnel.length + 1;\n\n        Fonctionnaire_Struct[_idFonctionnaire].idFonctionnaire = _idFonctionnaire;\n        Fonctionnaire_Struct[_idFonctionnaire].roleFonctionnaire = _roleFonctionnaire;\n        Fonctionnaire_Struct[_idFonctionnaire].nomFonctionnaire = _nomFonctionnaire;\n        Fonctionnaire_Struct[_idFonctionnaire].prenomFonctionnaire = _prenomFonctionnaire;\n        Fonctionnaire_Struct[_idFonctionnaire].addressFonctionnaire = _addressFonctionnaire;\n        Fonctionnaire_Struct[_idFonctionnaire].telephoneFonctionnaire = _telephoneFonctionnaire;\n        Fonctionnaire_Struct[_idFonctionnaire].mailFonctionnaire = _mailFonctionnaire;\n        Fonctionnaire_Struct[_idFonctionnaire].passwordFonctionnaire = _passwordFonctionnaire;\n        Fonctionnaire_Struct[_idFonctionnaire].createurFonctionnaire = _createurFonctionnaire;\n\n        NumFonctionnaire[nombrePersonnels].NumeroFonctionnaire = nombrePersonnels;\n        NumFonctionnaire[nombrePersonnels].idFonctionnaire = _idFonctionnaire;\n\n\n        listPersonnel.push(_idFonctionnaire);\n    }\n\n\n\n    function getNombrePersonnels() public view returns (uint256 ) {\n        return nombrePersonnels;\n    }\n\n    function getAllid() public view returns (uint256[] memory) {\n        return listPersonnel;\n    }\n\n            //////////************ROLE ************\\\\\\\\\\\\\\\\\\\\\n    function getRoleFonctionnaire(uint256  idPersonnel)\n        public\n        view\n        returns (string memory)\n    {\n        Fonctionnaire storage tmp = Fonctionnaire_Struct[idPersonnel];\n        return tmp.roleFonctionnaire;\n    }\n\n     function setRoleFonctionnaire(uint256  idPersonnel,string memory _roleFonctionnaire)\n        public\n        returns (string memory)\n    {\n        Fonctionnaire_Struct[idPersonnel].roleFonctionnaire = _roleFonctionnaire;\n        Fonctionnaire storage tmp = Fonctionnaire_Struct[idPersonnel];\n        return tmp.roleFonctionnaire;\n    }\n\n            //////////************NOM ************\\\\\\\\\\\\\\\\\\\\\n\n    function getNomFonctionnaire(uint256 idPersonnel)\n        public\n        view\n        returns (string memory)\n    {\n        Fonctionnaire storage tmp = Fonctionnaire_Struct[idPersonnel];\n        return tmp.nomFonctionnaire;\n    }\n\n     function setNomFonctionnaire(uint256 idPersonnel,string memory _nomFonctionnaire)\n        public\n        returns (string memory)\n    {\n        Fonctionnaire_Struct[idPersonnel].nomFonctionnaire = _nomFonctionnaire;\n\n        Fonctionnaire storage tmp = Fonctionnaire_Struct[idPersonnel];\n        return tmp.nomFonctionnaire;\n    }\n\n\n            //////////************PRENOM ************\\\\\\\\\\\\\\\\\\\\\n    function getPrenomFonctionnaire(uint256 idPersonnel)\n        public\n        view\n        returns (string memory)\n    {\n        Fonctionnaire storage tmp = Fonctionnaire_Struct[idPersonnel];\n        return tmp.prenomFonctionnaire;\n    }\n\n    function setPrenomFonctionnaire(uint256 idPersonnel,string memory _prenomFonctionnaire)\n        public\n        returns (string memory)\n    {\n        Fonctionnaire_Struct[idPersonnel].prenomFonctionnaire = _prenomFonctionnaire;\n\n        Fonctionnaire storage tmp = Fonctionnaire_Struct[idPersonnel];\n        return tmp.prenomFonctionnaire;\n    }\n\n\n            //////////************TELEPHONE ************\\\\\\\\\\\\\\\\\\\\\n\n    function getTelephoneFonctionnaire(uint256 idPersonnel)\n        public\n        view\n        returns (uint256)\n    {\n        Fonctionnaire storage tmp = Fonctionnaire_Struct[idPersonnel];\n        return tmp.telephoneFonctionnaire;\n    }\n\n    function SetTelephoneFonctionnaire(uint256 idPersonnel,uint256 _telephoneFonctionnaire)\n        public\n        returns (uint256)\n    {\n        Fonctionnaire_Struct[idPersonnel].telephoneFonctionnaire = _telephoneFonctionnaire;\n\n        Fonctionnaire storage tmp = Fonctionnaire_Struct[idPersonnel];\n        return tmp.telephoneFonctionnaire;\n    }\n\n            //////////************ADDRESS ************\\\\\\\\\\\\\\\\\\\\\n\n    function getAddressFonctionnaire(uint256 idPersonnel)\n        public\n        view\n        returns (string memory)\n    {\n        Fonctionnaire storage tmp = Fonctionnaire_Struct[idPersonnel];\n        return tmp.addressFonctionnaire;\n    }\n\n\n\n    function setAddressFonctionnaire(uint256 idPersonnel,string memory _addressFonctionnaire)\n        public\n        returns (string memory)\n    {\n        Fonctionnaire_Struct[idPersonnel].addressFonctionnaire = _addressFonctionnaire;\n\n        Fonctionnaire storage tmp = Fonctionnaire_Struct[idPersonnel];\n        return tmp.addressFonctionnaire;\n    }\n\n            //////////************EMAIL ************\\\\\\\\\\\\\\\\\\\\\n\n    function getMailFonctionnaire(uint256 idPersonnel)\n        public\n        view\n        returns (string memory)\n    {\n        Fonctionnaire storage tmp = Fonctionnaire_Struct[idPersonnel];\n        return tmp.mailFonctionnaire;\n    }\n\n    function setMailFonctionnaire(uint256 idPersonnel,string memory _mailFonctionnaire)\n        public\n        returns (string memory)\n    {\n        Fonctionnaire_Struct[idPersonnel].mailFonctionnaire = _mailFonctionnaire;\n\n        Fonctionnaire storage tmp = Fonctionnaire_Struct[idPersonnel];\n        return tmp.mailFonctionnaire;\n    }\n            //////////************PASSWORD ************\\\\\\\\\\\\\\\\\\\\\n\n     function getPasswordFonctionnaire(uint256 idPersonnel)\n        public\n        view\n        returns (string memory)\n    {\n        Fonctionnaire storage tmp = Fonctionnaire_Struct[idPersonnel];\n        return tmp.passwordFonctionnaire;\n    }\n\n    function setPasswordFonctionnaire(uint256 idPersonnel,string memory _passwordFonctionnaire)\n        public\n        returns (string memory)\n    {\n        Fonctionnaire_Struct[idPersonnel].passwordFonctionnaire = _passwordFonctionnaire;\n\n        Fonctionnaire storage tmp = Fonctionnaire_Struct[idPersonnel];\n        return tmp.passwordFonctionnaire;\n    }\n\n            //////////************CREATEUR ************\\\\\\\\\\\\\\\\\\\\\n\n    function getCreateurFonnctionnaire(uint256  idPersonnel) public view returns (address )\n     {\n        Fonctionnaire storage tmp = Fonctionnaire_Struct[idPersonnel];\n        return tmp.createurFonctionnaire;\n    }\n}\n",
  "sourcePath": "/home/unknown/memoire1.1/Esante/contracts/PersonnelSante.sol",
  "compiler": {
    "name": "solc",
    "version": "0.5.16+commit.9c3226ce.Emscripten.clang"
  },
  "schemaVersion": "3.2.1",
  "updatedAt": "2020-07-08T21:19:41.442Z",
  "networkType": "ethereum",
  "devdoc": {
    "methods": {}
  },
  "userdoc": {
    "methods": {
      "getAddressFonctionnaire(uint256)": {
        "notice": "///////************ADDRESS ************\\\\\\\\\\\\\\\\\\\\"
      },
      "getCreateurFonnctionnaire(uint256)": {
        "notice": "///////************CREATEUR ************\\\\\\\\\\\\\\\\\\\\"
      },
      "getMailFonctionnaire(uint256)": {
        "notice": "///////************EMAIL ************\\\\\\\\\\\\\\\\\\\\"
      },
      "getNomFonctionnaire(uint256)": {
        "notice": "///////************NOM ************\\\\\\\\\\\\\\\\\\\\"
      },
      "getPasswordFonctionnaire(uint256)": {
        "notice": "///////************PASSWORD ************\\\\\\\\\\\\\\\\\\\\"
      },
      "getPrenomFonctionnaire(uint256)": {
        "notice": "///////************PRENOM ************\\\\\\\\\\\\\\\\\\\\"
      },
      "getRoleFonctionnaire(uint256)": {
        "notice": "///////************ROLE ************\\\\\\\\\\\\\\\\\\\\"
      },
      "getTelephoneFonctionnaire(uint256)": {
        "notice": "///////************TELEPHONE ************\\\\\\\\\\\\\\\\\\\\"
      }
    }
  }
}